:100000008089012055DA000065B1030029DA00007B
:1000100029DA000029DA000029DA000000000000D7
:1000200000000000000000000000000039D10000C6
:1000300029DA000000000000A5D0000029DA000045
:1000400011D30000D1E0030011D3000011D3000050
:1000500011D3000011D3000011D3000011D3000010
:1000600087E0030011D3000011D30000BBE00300C0
:1000700011D3000011D3000011D3000011D30000F0
:1000800011D3000011D3000011D3000011D30000E0
:1000900011D3000011D3000011D3000011D30000D0
:1000A00011D3000011D3000011D3000011D30000C0
:1000B00011D3000011D3000011D3000011D30000B0
:1000C00011D3000011D3000011D3000011D30000A0
:1000D00011D3000011D3000011D3000011D3000090
:1000E00011D3000011D3000011D3000011D3000080
:1000F00011D3000011D3000011D3000011D3000070
:1001000001F0FF01102A2BDB10F0070F08D010F8C8
:10011000013B013A8B422DD010F0070F42B3F6D1CC
:10012000F0B441EA012141EA014122F007047FF0E5
:1001300000070023F0E80256083C85EA010586EA3C
:10014000010685FA47F5A3FA87F586FA47F6A5FA78
:1001500087F68EB9EED1F0BC01F0FF0102F0070284
:1001600032B110F8013B013A83EA010313B1F8D12F
:100170000020704701387047002D06BF3546033810
:10018000073815F0010F07D1013015F4807F02BF49
:10019000013015F4C03F0130F0BC0138704700BF9A
:1001A00081F0004102E000BF83F0004330B54FEA28
:1001B00041044FEA430594EA050F08BF90EA020F95
:1001C0001FBF54EA000C55EA020C7FEA645C7FEA28
:1001D000655C00F0E2804FEA5454D4EB5555B8BF4B
:1001E0006D420CDD2C4480EA020281EA030382EABC
:1001F000000083EA010180EA020281EA0303362D4E
:1002000088BF30BD11F0004F4FEA01314FF4801C20
:100210004CEA113102D0404261EB410113F0004F32
:100220004FEA03334CEA133302D0524263EB4303E9
:1002300094EA050F00F0A780A4F10104D5F1200E87
:100240000DDB02FA0EFC22FA05F2801841F10001E2
:1002500003FA0EF2801843FA05F359410EE0A5F1B6
:1002600020050EF1200E012A03FA0EFC28BF4CF0E7
:10027000020C43FA05F3C01851EBE37101F000459D
:1002800007D54FF0000EDCF1000C7EEB00006EEBAA
:100290000101B1F5801F1BD3B1F5001F0CD3490834
:1002A0005FEA30004FEA3C0C04F101044FEA44528B
:1002B00012F5800F80F09A80BCF1004F08BF5FEA12
:1002C000500C50F1000041EB045141EA050130BDF2
:1002D0005FEA4C0C404141EB0101013C28BFB1F504
:1002E000801FE9D291F0000F04BF01460020B1FA4F
:1002F00081F308BF2033A3F10B03B3F120020CDA22
:100300000C3208DD02F1140CC2F10C0201FA0CF0FF
:1003100021FA02F10CE002F11402D8BFC2F1200C64
:1003200001FA02F120FA0CFCDCBF41EA0C0190401A
:10033000E41AA2BF01EB0451294330BD6FEA040463
:100340001F3C1CDA0C340EDC04F11404C4F120024E
:1003500020FA04F001FA02F340EA030021FA04F360
:1003600045EA030130BDC4F10C04C4F1200220FAB7
:1003700002F001FA04F340EA0300294630BD21FAF5
:1003800004F0294630BD94F0000F83F4801306BFBB
:1003900081F480110134013D4EE77FEA645C18BFAF
:1003A0007FEA655C29D094EA050F08BF90EA020F46
:1003B00005D054EA000C04BF1946104630BD91EA3E
:1003C000030F1EBF0021002030BD5FEA545C05D141
:1003D0004000494128BF41F0004130BD14F5800480
:1003E0003CBF01F5801130BD01F0004545F0FE41F4
:1003F00041F470014FF0000030BD7FEA645C1ABF29
:10040000194610467FEA655C1CBF0B46024650EA5F
:10041000013406BF52EA033591EA030F41F400218B
:1004200030BD00BF90F0000F04BF0021704730B511
:100430004FF4806404F132044FF000054FF00001E6
:1004400050E700BF90F0000F04BF0021704730B5A7
:100450004FF4806404F1320410F0004548BF40427C
:100460004FF000013EE700BF42004FEAE2014FEAD1
:1004700031014FEA02701FBF12F07F4393F07F4FAC
:1004800081F06051704732F07F4208BF704793F0AF
:100490007F4F04BF41F40021704730B54FF46074C2
:1004A00001F0004521F000411CE700BF50EA0102C5
:1004B00008BF704730B54FF000050AE050EA01026E
:1004C00008BF704730B511F0004502D5404261EBDE
:1004D00041014FF4806404F132045FEA915C3FF41F
:1004E000D8AE4FF003025FEADC0C18BF03325FEABC
:1004F000DC0C18BF033202EBDC02C2F1200300FA6D
:1005000003FC20FA02F001FA03FE40EA0E0021FA91
:1005100002F11444BDE600BF70B54FF0FF0C4CF47F
:10052000E06C1CEA11541DBF1CEA135594EA0C0F31
:1005300095EA0C0F00F0DEF82C4481EA030621EA6C
:100540004C5123EA4C5350EA013518BF52EA0335A7
:1005500041F4801143F4801338D0A0FB02CE4FF059
:100560000005E1FB02E506F00042E0FB03E54FF089
:100570000006E1FB03569CF0000F18BF4EF0010E81
:10058000A4F1FF04B6F5007F64F5407404D25FEA7D
:100590004E0E6D4146EB060642EAC62141EA555130
:1005A0004FEAC52040EA5E504FEACE2EB4F1FD0C72
:1005B00088BFBCF5E06F1ED8BEF1004F08BF5FEAF0
:1005C000500E50F1000041EB045170BD06F00046A2
:1005D00046EA010140EA020081EA0301B4EB5C044F
:1005E000C2BFD4EB0C0541EA045170BD41F4801147
:1005F0004FF0000E013C00F3AB8014F1360FDEBF6C
:10060000002001F0004170BDC4F10004203C35DA47
:100610000C341BDC04F11404C4F1200500FA05F3CA
:1006200020FA04F001FA05F240EA020001F000426B
:1006300021F0004110EBD37021FA04F642EB0601E1
:100640005EEA430E08BF20EAD37070BDC4F10C040B
:10065000C4F1200500FA04F320FA05F001FA04F2CF
:1006600040EA020001F0004110EBD37041F10001BB
:100670005EEA430E08BF20EAD37070BDC4F12005C6
:1006800000FA05F24EEA020E20FA04F301FA05F22E
:1006900043EA020321FA04F001F0004121FA04F2D6
:1006A00020EA020000EBD3705EEA430E08BF20EAA6
:1006B000D37070BD94F0000F0FD101F000464000E0
:1006C00041EB010111F4801F08BF013CF7D041EA62
:1006D000060195F0000F18BF704703F00046520066
:1006E00043EB030313F4801F08BF013DF7D043EA37
:1006F0000603704794EA0C0F0CEA135518BF95EAED
:100700000C0F0CD050EA410618BF52EA4306D1D173
:1007100081EA030101F000414FF0000070BD50EA92
:10072000410606BF1046194652EA430619D094EA1C
:100730000C0F02D150EA013613D195EA0C0F05D106
:1007400052EA03361CBF104619460AD181EA03015A
:1007500001F0004141F0FE4141F470014FF0000012
:1007600070BD41F0FE4141F4780170BD70B54FF0AD
:10077000FF0C4CF4E06C1CEA11541DBF1CEA13552D
:1007800094EA0C0F95EA0C0F00F0A7F8A4EB05040F
:1007900081EA030E52EA03354FEA013100F0888006
:1007A0004FEA03334FF0805545EA131343EA1263CF
:1007B0004FEA022245EA111545EA10654FEA002684
:1007C0000EF000419D4208BF964244F1FD0404F53D
:1007D000407402D25B084FEA3202B61A65EB030599
:1007E0005B084FEA32024FF480104FF4002CB6EB56
:1007F000020E75EB030E22BFB61A754640EA0C00D6
:100800005B084FEA3202B6EB020E75EB030E22BF15
:10081000B61A754640EA5C005B084FEA3202B6EB56
:10082000020E75EB030E22BFB61A754640EA9C0015
:100830005B084FEA3202B6EB020E75EB030E22BFE5
:10084000B61A754640EADC0055EA060E18D04FEAA3
:10085000051545EA16754FEA06164FEAC30343EA43
:1008600052734FEAC2025FEA1C1CC0D111F4801F10
:100870000BD141EA00014FF000004FF0004CB6E709
:1008800011F4801F04BF01430020B4F1FD0C88BFA8
:10089000BCF5E06F3FF6AFAEB5EB030C04BFB6EBB3
:1008A000020C5FEA500C50F1000041EB045170BDA6
:1008B0000EF0004E4EEA113114EB5C04C2BFD4EBD3
:1008C0000C0541EA045170BD41F480114FF0000E57
:1008D000013C90E645EA060E8DE60CEA135594EAD3
:1008E0000C0F08BF95EA0C0F3FF43BAF94EA0C0FD6
:1008F0000AD150EA01347FF434AF95EA0C0F7FF44B
:1009000025AF104619462CE795EA0C0F06D152EA9E
:1009100003353FF4FDAE1046194622E750EA410682
:1009200018BF52EA43067FF4C5AE50EA41047FF493
:100930000DAF52EA43057FF4EBAE12E77BB972B913
:100940000029BEBF00204FF0004106E008BF00288C
:100950001CBF6FF000414FF0FF3000F057B8ADF111
:10096000080C6DE904CE002909DB002B1ADB04F02A
:10097000D7FADDF804E0DDE9022304B07047404215
:1009800061EB4101002B1BDB04F0CAFADDF804E047
:10099000DDE9022304B0404261EB4101524263EBC6
:1009A00043037047524263EB430304F0B9FADDF8A6
:1009B00004E0DDE9022304B0404261EB41017047ED
:1009C000524263EB430304F0ABFADDF804E0DDE9E7
:1009D000022304B0524263EB4303704753B94AB950
:1009E000002908BF00281CBF4FF0FF314FF0FF3037
:1009F00000F00CB8ADF1080C6DE904CE04F090FAEB
:100A0000DDF804E0DDE9022304B07047704700BF61
:100A10002DE9F14F03F11C0402EB840C4FEA930B18
:100A20008A68CB680868496800F046F93CE9F0003C
:100A30006040694072407B400BF1060E4EE083EA55
:100A4000134480EA134582EA134746BA96EA3444CF
:100A5000604000F00F1684EA063420F00F1684EA96
:100A6000161054BA94EA0106724002F00F1486EA96
:100A7000043622F00F1486EA14124CBA654069401D
:100A800001F00F1485EA043521F00F1485EA1411E2
:100A90005CBA67407B4003F00F1487EA043723F009
:100AA0000F1487EA141344BA44404DBA4D4056BA65
:100AB00056405FBA5F4087EA174886EA174B84EAD8
:100AC00017464FEA38488BEA1B4485EA1B4788EAF9
:100AD0001B4580EA3440694072407B4000F070342E
:100AE00000F0803500F00F3040EA440040EAD500C5
:100AF00080EA900404F0332480EA8400604001F02E
:100B0000703401F0803501F00F3141EA440141EACF
:100B1000D50181EA910404F0332481EA8401614023
:100B200002F0703402F0803502F00F3242EA4402E3
:100B300042EAD50282EA920404F0332482EA840273
:100B4000624003F0703403F0803503F00F3343EA62
:100B5000440343EAD50383EA930404F0332483EA8D
:100B600084036340C943DB4381EA000483EA04460B
:100B700086EA020183EA014382EA334583EA1443A9
:100B80005C4084EA00077FEA040A8AEA024A8AEAA9
:100B9000010B87EA11488AEA374A80EA060181EAAE
:100BA0001A418AEA030A04EA0A00454088EA04076F
:100BB00007EA0B0041408AEA0B0608EA060084EACD
:100BC00034428AEA3A4602EA060358404540414028
:100BD00087EA37438BEA3B4003EA000985EA0905C7
:100BE00082EA0309464006EA0906714085EA0100E7
:100BF00005EA3546464006EA314181EA304181EA5C
:100C0000364606EA304686EA354634400F4086EAE4
:100C1000010508EA050886EA3640024088EA02082B
:100C200081EA314213405C4080EA020309EA030989
:100C300087EA0907674088EA040806EA0A0601EA23
:100C40000B018AEA0B0425408AEA3A4420404540D9
:100C50008BEA3B4B02EA0B02564084EA0B0423402A
:100C600059406E40694087EA364080EA384080EA61
:100C7000060380EA104481EA134585EA344585EA93
:100C800017427D4082EA354180EA05403CE9F000A8
:100C90006040694072407B40BEF1010E3FF6CFAE2E
:100CA00020BC00F05FF828606960AA60EB60BDE8D6
:100CB000F08F00BF00F000BA80EA101404F0F014C6
:100CC00080EA0410604081EA111404F0F01481EA13
:100CD0000411614082EA121404F0F01482EA041252
:100CE000624083EA131404F0F01483EA04136340AF
:100CF00080EA102404F47F4480EA0420604081EA02
:100D0000112404F47F4481EA0421614082EA122420
:100D100004F47F4482EA0422624083EA132404F448
:100D20007F4483EA0423634081EA500404F055348D
:100D300080EA4400614083EA520404F0553482EAB8
:100D40004402634082EA900404F0333480EA840071
:100D5000624083EA910404F0333481EA8401634001
:100D6000704700BF82EA900404F0333480EA8400C4
:100D7000624083EA910404F0333481EA84016340E1
:100D800081EA500404F0553480EA4400614083EA6B
:100D9000520404F0553482EA4402634080EA10248D
:100DA00004F47F4480EA0420604081EA112404F4C2
:100DB0007F4481EA0421614082EA122404F47F44E2
:100DC00082EA0422624083EA132404F47F4483EA23
:100DD0000423634080EA101404F0F01480EA041045
:100DE000604081EA111404F0F01481EA04116140BA
:100DF00082EA121404F0F01482EA0412624083EAD8
:100E0000131404F0F01483EA04136340704700BF26
:100E10002DE9F14F94464FEA930B8A68CB68086836
:100E20004968FFF749FF0BF1060E33E083EA1344EC
:100E300080EA134582EA134746BA96EA3444604092
:100E400000F00F1684EA063420F00F1684EA16101C
:100E500054BA94EA0106724002F00F1486EA04368E
:100E600022F00F1486EA14124CBA6540694001F072
:100E70000F1485EA043521F00F1485EA14115CBAC9
:100E800067407B4003F00F1487EA043723F00F1408
:100E900087EA1413BCE8F0006040694072407B4070
:100EA00000F0E03400F0103500F00F3040EA54005C
:100EB00040EAC50080EA900404F0332480EA84000C
:100EC000604001F0E03401F0103501F00F3141EAEB
:100ED000540141EAC50181EA910404F0332481EA16
:100EE0008401614002F0E03402F0103502F00F326C
:100EF00042EA540242EAC50282EA920404F0332430
:100F000082EA8402624003F0E03403F0103503F01B
:100F10000F3343EA540343EAC50383EA930404F01E
:100F2000332483EA8403634081EA324787EA134526
:100F300081EA354690EA060484EA034B82EA1B42C2
:100F400080EA044484EA054483EA144A85EA1444A6
:100F50008BEA044B84EA374481EA0B4181EA16416B
:100F600004EA0A00454082EA04082BEA08004140EE
:100F70008AEA0B0602EA060084EA34438AEA3A4621
:100F800003EA060778404540414088EA38478BEA43
:100F90003B4007EA000985EA090583EA070946405C
:100FA00006EA0906714085EA010005EA3546464031
:100FB00006EA314181EA304181EA364606EA3046A6
:100FC00086EA3546344008EA010886EA01052A40E7
:100FD00086EA364003405A4081EA31431F407C4054
:100FE00080EA030709EA070988EA0908544088EA01
:100FF000020806EA0A0601EA0B018AEA0B0215401A
:101000008AEA3A42104045408BEA3B4003405E404A
:101010004240174079404D404E40E443F64386EA53
:1010200018435D4085EA054083EA134386EA03419D
:1010300083EA384284EA114383EA04435FEA334394
:10104000BEF1010E3FF6F2AE1ED4BCE8F0006040E7
:10105000694072407B4020BCFFF784FE28606960D5
:10106000AA60EB60BDE8F08F2DE9E0414FF2F0029D
:1010700080EA1031114080EA01304840410882087E
:10108000C3084FF0000E4FE700F0113001F01131AE
:1010900002F0113203F0113340EA410040EA8200CD
:1010A00040EAC3004FF2F00280EA1031114080EABA
:1010B00001304840BDE8E0812DE9F04F02F11C0508
:1010C0000646074600EB850851F8040B043A46F83B
:1010D000040BF9D14FF0010CFFF7C6FF5FEA302097
:1010E00080EA0C001ECF41404A4053405C401EC67F
:1010F0002000464517D04FEA4C0C1CF4807F18BFE7
:10110000ACF1E50C2C2DE7D03C2D06D1FFF7ACFF60
:1011100006CF41404A4006C6100006CF41404A4033
:1011200006C61000D8E736E90F00FFF7C5FD043DFD
:1011300086E80F00F7D1BDE8F08F00BF2DE9F04F32
:1011400090E8F00F00F140004FF0040E59E0F0B4C9
:10115000826BC36B04680525242687593C444FEAFB
:10116000724787EAF24787EA92273C4442684FEA8F
:10117000F21787EAB24787EAD2073C4440F8044BAB
:10118000032D08BF6FF01B0687593A444FEA734797
:1011900087EAF34787EA93273A4443684FEAF3170D
:1011A00087EAB34787EAD3073A4440F8042B8759C4
:1011B0003B444FEA744787EAF44787EA94273B4465
:1011C00044684FEAF41787EAB44787EAD4073B44F8
:1011D00040F8043B013DC0D1A0F13C00076A3C440B
:1011E0004FEA724787EAF24787EA92273C4402684F
:1011F0004FEAF21787EAB24787EAD2073C44C46352
:10120000F0BC4FF0020288EA781C8CEAF84C0BEB39
:10121000BC1C8AEA090303EA080383EA0A039C4424
:1012200050F8043B9C4451F8043B9C44674444EA16
:10123000050B0BEA060B04EA05034BEA030BE34438
:1012400084EAF42383EA34530BEBB30B87EA771C6D
:101250008CEAF74C0AEBBC1C89EA080303EA070393
:1012600083EA09039C4450F8043B9C4451F8043B36
:101270009C4466444BEA040A0AEA050A0BEA0403A2
:101280004AEA030AE2448BEAFB2383EA3B530AEB74
:10129000B30A86EA761C8CEAF64C09EBBC1C88EA99
:1012A000070303EA060383EA08039C4450F8043B5F
:1012B0009C4451F8043B9C4465444AEA0B0909EA02
:1012C00004090AEA0B0349EA0309E1448AEAFA231A
:1012D00083EA3A5309EBB30985EA751C8CEAF54CAD
:1012E00008EBBC1C87EA060303EA050383EA07034D
:1012F0009C4450F8043B9C4451F8043B9C44644497
:1013000049EA0A0808EA0B0809EA0A0348EA030856
:10131000E04489EAF92383EA395308EBB30884EA05
:10132000741C8CEAF44C07EBBC1C86EA050303EA48
:10133000040383EA06039C4450F8043B9C4451F8A0
:10134000043B9C44E34448EA090707EA0A0708EA21
:10135000090347EA0307674488EAF82383EA385316
:1013600007EBB3078BEA7B1C8CEAFB4C06EBBC1C3F
:1013700085EA040303EA0B0383EA05039C4450F85F
:10138000043B9C4451F8043B9C44E24447EA080671
:1013900006EA090607EA080346EA0306664487EAFE
:1013A000F72383EA375306EBB3068AEA7A1C8CEA02
:1013B000FA4C05EBBC1C84EA0B0303EA0A0383EA3C
:1013C00004039C4450F8043B9C4451F8043B9C4467
:1013D000E14446EA070505EA080506EA070345EA87
:1013E0000305654486EAF62383EA365305EBB30525
:1013F00089EA791C8CEAF94C04EBBC1C8BEA0A03E1
:1014000003EA090383EA0B039C4450F8043B9C4421
:1014100051F8043B9C44E04445EA060404EA07040E
:1014200005EA060344EA0304644485EAF52383EAF3
:10143000355304EBB304013A7FF4E5AEA0F140006C
:10144000BEF1010E7FF483AEA0F1400C9CE80F00CA
:10145000001949199219DB19ACE80F009CE80F003C
:101460004044494452445B44ACE80F00BDE8F08F6F
:1014700001480068C06B004718000020014A12684C
:10148000126B104718000020014909688969084754
:10149000180000200148006800680047180000207C
:1014A000014800684069004718000020014A12689E
:1014B000D268104718000020014800680069004702
:1014C00018000020014A1268926810471800002096
:1014D00001490968496A08471800002030B4034CE4
:1014E00024686468A44630BC6047000018000020EF
:1014F00001480078704700009C0000207F520000E7
:10150000B7520000A15200008F5200009B52000011
:10151000895200007D5200007B520000B35200004F
:10152000A75200009552000083520000755200003F
:101530006D520000715200006752000070B51C4CE3
:10154000607800282DD10120607004F00DF9D825B5
:101550006FF0270628B904F01DF910B904F024F93A
:1015600038B1144A66F307006260C4E902500820EB
:1015700013E004F0CEF840B904F0D5F828B904F02F
:10158000E9F810B904F0FAF860B10A4A66F3070006
:1015900031326260C4E90250042060F30701C4E9FB
:1015A000040170BD4FF4DB71742003F03BF90000BF
:1015B0001C000020BA590000074A10B554691032C7
:1015C00092F90420824205DD00F00AF80349085C24
:1015D00060F3070460B210BD1C000020AC5900008D
:1015E0000246154810B590F90400904201DC0D2028
:1015F00010BD1148083890F90400904201DB00202A
:1016000010BD01B10121141A0B4810384368185D50
:101610000A4C24569442F3D0084C08443F34C0B2DC
:10162000D2B2A342ECD10029EAD0012A01D0022A89
:10163000E6D1401CC0B210BD2C000020AC59000007
:101640002DE9F0411C4690460D4606466FF0150701
:10165000042804D81CB103F031FEA84202D8384651
:10166000BDE8F0810548424650F8260018B14057C1
:10167000824200DD024622700020F1E77410002053
:1016800070B50D4604000CD094F8286000210220AB
:10169000092D6ED2DFE805F008113636667189A68D
:1016A00094004FF4CB71F7E094F8260004287BD027
:1016B0000328FCD040F2A111EEE094F826000428A3
:1016C00004D0032802D040F2A511E5E0052084F8FB
:1016D000260084F8291094F82400B8BB0021204685
:1016E00003F04FFE2078012807D0D4E9040100BFA1
:1016F000C4E906010021226A48E094F8270001F0BD
:1017000041FAF5E794F82610042904D0032902D001
:1017100040F2C311C0E094F8242022B121463046A3
:1017200003F06FFEB0E0042900D0012084F8260009
:10173000226A022D0BD006213046904700286DD03A
:10174000007800286AD040F2DD11A5E034E00521E0
:1017500030469047002870D0007800286DD04FF4B4
:10176000EC7199E094F82600052803D04FF4F2714B
:1017700092E080E00221226A08E094F82600052821
:1017800002D04FF4F57187E0226A0121304690477C
:101790000146204603F0A0FD022875D0E8B30128D9
:1017A0006CD040F22A2177E070E094F826000528FA
:1017B00002D04FF4F8716FE0BDE8704000F09EB8C1
:1017C00094F82600052802D040F2F51164E0226A60
:1017D0000A21304690470146204603F07DFD4FF434
:1017E000FC7159E094F82620052A07D094F825309A
:1017F0000BB1032A02D04FF4FE714DE094F824207F
:101800002AB121463046BDE8704003F0FABD94F895
:1018100029209AB184F8291001E032E034E084F8FC
:101820002600226A082130469047002837D00078E9
:10183000002834D04FF402712EE030E094F82520D7
:101840005AB184F8251094F82700214603F097FD3B
:10185000002824D140F20D211EE084F82600226ADF
:10186000072130469047002819D00078002816D06C
:101870004FF4057110E040F219210DE00421226AB5
:1018800084E70321226A81E7002D08D103F06DFE71
:10189000002804D040F233216A2002F0C3FF70BD5B
:1018A000002819D003781349134A13B1012B0ED025
:1018B00011E00379012B00D06BB943790BB1012BF7
:1018C00009D18368643B8B4205D2C0680EE003797E
:1018D000012B02D00BB10020704743790BB1012BD3
:1018E000F9D1C368643B8B42F5D280689042F2D84C
:1018F000012070473D860100FF3F420F10B5054CA7
:10190000206810B1804700202060BDE8104001F041
:1019100019BD0000340000202DE9F0410E460500FD
:1019200004D000F047F8074600240BE06FF01500E4
:10193000BDE8F081204600F043F890F8260030B171
:10194000641CE4B2BC42F5D36FF00B00F0E727460D
:10195000FF2CF9D0204600F033F8044603F06CFD6C
:1019600084F828702146084801F0C8FC84F8270054
:10197000202806D00120256284F826003770002038
:10198000D6E76FF02200D3E78116000010B582077A
:1019900002D06FF00D0010BD054A1170506028B1E3
:1019A00001EB41010A01002103F086FF002010BD78
:1019B00038000020014800787047000038000020FF
:1019C00005490A78904201D300207047496800EB2E
:1019D000400001EB00107047380000200D4910B5A1
:1019E00091F84A0020280FD091F84A00A1F59062A2
:1019F00002EB401091F84A10406802EB41110A686E
:101A0000BDE810400421104740F6AF01702002F0FD
:101A100009FF00000010002070B50546202A28D0DC
:101A200019481A4C00EB831C03EB43030CEB4200F8
:101A30002344202922D00CEB410140784C78487097
:101A4000204601460CEB4100914205704078F8D1E8
:101A500093F83220202A1ABF0CEB4202547083F80C
:101A6000314020220CEB410C8CF8012083F832101D
:101A700070BD40F28121702002F0D4FE93F8304016
:101A8000407883F83000DBE7800F00200010002052
:101A90002DE9F04F8FB016461D460C4601F05EFE54
:101AA000301845F10001CDE90110D4E90023801A76
:101AB00071EB0300C0F0E58008A8DDF860800A90B3
:101AC000BE4808EB48010844099090F830502020A7
:101AD0000DF11C098DF81C00202D36D0B8480026C9
:101AE00000EB881AB748D4E9007300EB451050F8B2
:101AF00008BFD0E901121BEB02027141BA1A73EB65
:101B0000010122D3E189C9B1C089B8B902F026F830
:101B1000B0F5C67F08BF0D200BD0A0F54070563839
:101B200008BF1C2005D0A0F500709F3814BF3046B8
:101B30003220411CB7EB0B00884206DB0AEB450064
:101B400089F800504578202DCCD10A9899F80010DA
:101B5000202D01700A9E00F02D819948002700EB8E
:101B60008810DFF860820490D4E90131D4F800B025
:101B700008EB451909F108001BEB010243EB0701D3
:101B8000D0E900A3BAEB020273EB010120D3C089B4
:101B9000002800F00F81E089002840F00B8101F05F
:101BA000DDFFB0F5C67F08BF0D200BD0A0F540705B
:101BB000563808BF1C2005D0A0F500709F3814BF10
:101BC00038463220401CBAEB0B01814280F2F28091
:101BD000357099F81800217C814207D2049800EBF7
:101BE00045004578202DBFD100F0E4B89DF82000D5
:101BF00008EB4010D0E90321D0F80890C08A19EB17
:101C0000010542EB0706B0BBE089A0B301F0A6FFD7
:101C1000B0F5C67F08BF0D200BD0A0F54070563838
:101C200008BF1C2005D0A0F500709F3814BF3846AF
:101C30003220411CB5EB090088421CDA01F08EFF0E
:101C4000B0F5C67F08BF0D200BD0A0F54070563808
:101C500008BF1C2005D0A0F500709F3814BF38467F
:101C600032209DF82010401C08EB4112D2E90213EB
:101C70000D1843EB0706DDE90110401B71EB060070
:101C800003D20FB00020BDE8F08FC4E900561898C9
:101C90000B9008A80A9009980DF11C0990F8305093
:101CA00020208DF81C00202D3CD045480B9900EBDE
:101CB000811A00BF08EB451000F108010269D1E963
:101CC000000CBB4683184CEB0B02D4E9006CF31AF2
:101CD0007CEB020226D3E289EAB1C989D9B90C901A
:101CE00001F03CFFB0F5C67F08BF4FF00D0B0CD0E4
:101CF000A0F54070563808BF4FF01C0B05D0A0F57A
:101D000000709F3808BF4FF0320B0BF101000C99A7
:101D1000711A814206DB0AEB450089F800504578CC
:101D2000202DC7D10A9899F80010202D0170DDE907
:101D30000AA03FD0224901EB80100390D4E9013181
:101D4000D4F800B008EB451606F108001BEB0102C1
:101D500043EB0701D0E90093B9EB020273EB0101F9
:101D60001BD3C08930B3E08920BB01F0F7FEB0F58A
:101D7000C67F08BF0D200BD0A0F54070563808BFB5
:101D80001C2005D0A0F500709F3814BF38463220C3
:101D9000401CB9EB0B0181420CDA8AF80050307E0E
:101DA000217C8142BFF422AF039800EB45004578C7
:101DB000202DC3D10FB00120BDE8F08F001000200E
:101DC000800F0020800B00202DE9F04383B0914666
:101DD00004460D46984601AA6946184601F0DAFC09
:101DE00001F024FD01F0BAFC07461E4890F84A10A5
:101DF0000026202909D0026941698069831D46F1C6
:101E00000000D41841EB000526E00A3445F1000536
:101E1000B8F1000F17D001F0D5FFA0B901F09EFE78
:101E2000B0F5C67F08BF0D200BD0A0F54070563826
:101E300008BF1C2005D0A0F500709F3814BF3046A5
:101E4000322004197541B9F1000F05D1009887427D
:101E500002D9381A0419754103B020462946BDE855
:101E6000F0830000001000202DE9FF4F81B00546EF
:101E700002984A4900EB40000844002690F83040A0
:101E8000202092461070A1F59069202C36D002993E
:101E900009F5806000EB811B09EB4410D5E9007364
:101EA00050F8088FD0E9011218EB02027141BA1AFA
:101EB00073EB010122D3E989C9B1C089B8B901F036
:101EC0004DFEB0F5C67F08BF0D200BD0A0F54070C9
:101ED000563808BF1C2005D0A0F500709F3814BFED
:101EE00030463220411CB7EB0800884206DB0BEB82
:101EF00044008AF800404478202CCDD104989AF808
:101F00000010202C0170049F029842D0244901EB5C
:101F100080100090D5E90131D5F800B009EB4418E4
:101F200008F108001BEB010243EB0601D0E900A316
:101F3000BAEB020273EB01011BD3C08948B3E889F5
:101F400038BB01F00BFEB0F5C67F08BF0D200BD0EB
:101F5000A0F54070563808BF1C2005D0A0F50070D1
:101F60009F3814BF30463220411CBAEB0B00884228
:101F70000FDA3C7098F81810287C884203D305B01B
:101F80000020BDE8F08F009800EB44004478202C3E
:101F9000C0D105B00120BDE8F08F00000010002086
:101FA000800F00202DE9FF5F92B01E4602F066F917
:101FB00005460C4601F03AFC80461498012818BFEB
:101FC000022805D04FF41C614FF0700002F02AFC8B
:101FD000FE4901200860FE498968086000208DF8EC
:101FE00032000290401ECDE90400FA4800EB461092
:101FF00000F10801D0E9066091E80E10CDE90A6011
:1020000006A880E80E1021F07F4003F0B7FA0246E0
:10201000BDF826909DF82400EF4B4844411C501811
:102020009A4257D8ED4A91425CDC5242914261DBC0
:10203000591C8142DCBF00F5F700A0F1F85005DD26
:102040000028BCBFA0F5F70000F1F8500F90E4485D
:10205000B9F1000FB0F8A800ADF8300014BF4FF090
:10206000010B4FF0000B01F0ADFE0090BBF1000F33
:102070000CD0DC48D0E910106FEA010171EA0000D1
:1020800002BF009800284FF0010A01D04FF0000A6B
:1020900001F064FDB0F5C67F08BF0D200BD0A0F5A0
:1020A0004070563808BF1C2005D0A0F500709F383E
:1020B00014BF00203220002637460190C84537D98A
:1020C0000F99C54E6FEA080C0EAB10AA01EB0C007D
:1020D000B14204D94FF4B461702002F0A3FBBF49B0
:1020E0008C4504DD40F2A151702002F09BFBBE49FB
:1020F0008C4504DA40F2A251702002F093FBBB49F8
:102100008142DCBF00F5F700A0F1F85005DD0028A2
:10211000BCBFA0F5F70000F1F850194601F03AFBFA
:102120000E98069920F07F400E90081A20F07F4606
:10213000BAF1000F18BF019F04D19DF830000028AC
:1021400018BF0227E84370EA040022D0DDE9060147
:102150002A1A74EB01020CD2421B61EB0401B2F5A6
:10216000000271F1000111D340F60421702002F049
:1021700059FB2A1A64EB0101B2F5000271F100016A
:1021800004D340F60821702002F04CFB401B0128CC
:1021900003DA12980E9003200DE0BAF1000F08D078
:1021A000904890F8480020B19DF83000071C18BFF7
:1021B000022700200E950744DDE90602801B62F12C
:1021C0000001421EDDF838C041F1FF33B2EB0C0CC8
:1021D000BC4508DBA6B3DDF820C0CDE90601B44458
:1021E000CDF820C02CE02EB19DF8310030B901F0BF
:1021F00013FB18B1BAF1000F14D10CE0BAF1000FC3
:1022000004D19DF83000002818BFBF1E00268DF8AD
:102210003060B04606E09DF8300018B100208DF81F
:102220003000BF1EDDE90602801B62F10001421E84
:10223000DDF838C041F1FF33B2EB0C0CBC457DDB5F
:10224000DDF800C0BCF1000F11D1DFF898C1DCE966
:10225000106CF74377EA0C0709D0861B61EB0C0C76
:102260000199711A7CF1000038BF002000D30120D1
:102270003BEA000062D1DDE91201009014980E9152
:10228000CDE910A016461F464FF0000A01F066FC8B
:10229000B0F5C67F08BF0D200BD0A0F540705638B2
:1022A00008BF1C2005D0A0F500709F3814BF504611
:1022B00032200B30009A0E9BB21A67EB0303101A00
:1022C00073F1000029D21198012802D0109848B16A
:1022D00016E0E84370EA040026D140F607117020AA
:1022E00002F0A0FAE84370EA040009D01CD0A81B51
:1022F00064EB07010023D0F1040273EB010206DA5C
:1023000035463C462846214601F098FE0CE0002266
:10231000101A72EB010011DB06E035463C462846F8
:10232000214601F08BFEDA462746E84370EA0700B3
:1023300077D0069925F07F400B1A00E076E0DDF8B3
:1023400020C023F07F4311EB0C01081A20F07F40DE
:10235000012B6BD3B3F5000F98BFB0F5000F65D814
:1023600025F07F4003F00AF90F991C4B0C1A00224C
:10237000E31A72F1000219D3DFF860C0421A002399
:10238000B2EB0C0C73F1000310D3134BA3423EBF0E
:10239000C0F5902000F1F450441807D3934249D27D
:1023A000C1F5902101F1F451084444420D4E96F8D4
:1023B0002A00A8B31498012805D0022002F0C0F822
:1023C000012002F0BDF8C14545D211E008050040EA
:1023D00040000020800B0020FF7F841E0040420F41
:1023E000800F00200010002000C0BDF00080841E7F
:1023F000A4EB08024FF001084FF000034FF0020079
:10240000CDF8008001F0ECFFD8B3B9F1000F41D056
:102410000023A4EB09020120CDF800802DE000E0AC
:102420000DE040F67A21702002F0FCF916B0002091
:10243000BDE8F09F40F67631702002F0F3F9C14517
:1024400034BF404648461E30A042B3DB40F68E21E2
:10245000702002F0E7F915D90120A4EB090200234E
:10246000009001F0BDFF60B1B8F1000F12D0012063
:102470000090A4EB08020023022001F0B1FF00B19C
:1024800008E03EE058EA090004D040F6A3117020AD
:1024900002F0C8F901204FF00008009022464346A0
:1024A000404601F09DFF60B3BBF1000F04BF96F8FA
:1024B0004800002802D0BAF1000F2CD0D6E9100154
:1024C000C04370EA010007D001F04EFB4FF0FF302F
:1024D0004FEA0001C6E91001BAF1000F21D00198BE
:1024E000CDF800802A1A67EB0803052001F078FF79
:1024F00068B396F84800002804BF012086F8480019
:1025000017E0022002F01CF8012002F019F816B0C2
:102510000020BDE8F09FD6E91001C04370EA010039
:1025200010D096F8480020B1052002F009F886F88E
:10253000488009F1190084420EDC40F6CC2170205D
:1025400002F070F901F02CFB01F028FFC2E740F225
:10255000FA21702002F066F9221A0120009000236F
:10256000032001F03DFF30B115488068C0F80080BD
:102570001448C0F800800DF10808134898E8FE10D0
:10258000C0F88010C0F88420C0F88830C0F88C40B3
:10259000C0F89050C0F89460C0F89870C0F89CC023
:1025A0000AAC94E80E10C0F8A010C0F8A420C0F83F
:1025B000A830C0F8ACC016B00120BDE8F09F000004
:1025C0004000002008050040800F002070B51D4D20
:1025D00095F84A00202818BF70BD95F8492002EBF5
:1025E0004200284490F83040202C26D0164B03EBB4
:1025F000821101EB4401497880F83010FF2085F802
:10260000390085F84A402146022000F08BF800206E
:1026100085F8380085F82A000C4800EB4410007E4D
:10262000002808BF02F076FC00200949496800290B
:1026300008BF70BDBDE87040084740F231317020DE
:1026400002F0F0F800100020800F0020800B002026
:10265000400000202DE9F05FDFF8B88098F849507D
:1026600005EB4500404490F83140202C08BFBDE800
:10267000F09FDFF8A4B0DFF8A490A9F5806A09EB19
:102680008517072617F8140001280ED0042808BF64
:1026900002260AD005280CBF0326062805D04FF4D1
:1026A0000D614FF0700002F0BDF8BBF1000F18BFD4
:1026B000AFF30080EFF3108072B607EB44014A7865
:1026C00005EB4501414481F8312091F83220A242C6
:1026D00004BF202281F83220A8B12A4621460120D9
:1026E00000F020F80AEB4411D1E900203146904770
:1026F00098F8495005EB4500404490F83140202CB3
:10270000BDD1BDE8F09F0648002818BFAFF3008098
:1027100062B6E2E70010002000000000800F0020F9
:1027200000000000DFF858C010B500230CEB821C3D
:1027300007281FD2DFE800F00505050504040400A2
:1027400001230CF81100002B08BF10BD02EB420260
:102750000C48024492F8320020280EBF82F8311053
:102760000CEB4000417020200CEB4103587082F8C4
:10277000321010BD40F25721702002F053F80000D3
:10278000800F0020001000202DE9F05F0F468046EA
:10279000DFF854B101EB47005844B8F1010F90F84D
:1027A0003040254618BFB8F1020F05D040F60C3175
:1027B0004FF0700002F036F8202D41D09BF82A002F
:1027C0000026002808BF022601F032FCDFF81C9129
:1027D00009EB441399681B690A1AC918091A22F0EF
:1027E0007F4221F07F41964299BFB2F5000FB1F5CB
:1027F000000F3F4A02EB871A20D922460AEB42011A
:102800004C78202C12D009EB441399681B69B1EB6A
:10281000000CC918091A2CF07F4C21F07F41664545
:102820009CBFBCF5000FB1F5000FE6D8202A05D0FB
:102830003B4620210420FFF7EFF80446AC4213D1B9
:102840002C48002818BFAFF3008001F0A7FD9BF8CB
:102850004B20202A0BD0DBE90432841C41F1000C10
:102860001B1B72EB0C0202D20020BDE8F09F202D52
:1028700013D02B464246FFF795FB00281EBF8BF86E
:102880004B500220BDE8F09F3B462A462021042001
:10289000FFF7C2F80020BDE8F09FDBE91001C0435C
:1028A00070EA010005D001F05FF94FF0FF30CBE98D
:1028B00010009BF8480028B1052001F041FE0020DF
:1028C0008BF84800042001F03BFE01F09FFE0A490E
:1028D00020208BF84B0089680020086007490860B9
:1028E0000120BDE8F09F000000100020800B0020B8
:1028F000800F00200000000040000020080500407C
:102900002DE9F04FDFF8D4B106468FB09BF84A00AE
:102910008A46202860D09BF84A100BF11004ABF5D2
:10292000906808EB411920218DF818109BF8491088
:10293000DBF8102001EB41015944002791F8305099
:10294000DBF8181051180A91DBF8000009AA30448E
:1029500007A900F01FFFD9F810200799D9F808003F
:1029600051184018682E3CD35D490022891B72EB38
:10297000070136D32168401A20F07F41D1F50001CC
:1029800072EB02012DD3A06008F5906084F810A0CE
:1029900090F849000DF1180B202D55D008F58061F5
:1029A00001EB801001904F48D4E90131D4F800A028
:1029B00000EB451808F108001AEB010243EB070190
:1029C000D0E90093B9EB020273EB010125D3C08972
:1029D00098B3E08948B137E040F6B331702001F098
:1029E00021FF0FB00120BDE8F08F01F0B7F8B0F57E
:1029F000C67F08BF0D200BD0A0F54070563808BF29
:102A00001C2005D0A0F500709F3814BF3846322036
:102A1000411CB9EB0A00884216DA8BF8005098F88E
:102A20001800217C814209D321680A98401AA060CD
:102A30000FB04FF00200BDE8F08F05E0019800EB09
:102A400045004578202DAED1052001F079FD234DBC
:102A50004FF0FF30C5E9020095F849309DF8182085
:102A60002021202A03D00520FEF7D6FF04E003EB47
:102A70004300284490F8300095F849201A4901EBAA
:102A8000821195F84A2001EB4201487028683044D1
:102A90002860FF2085F8390095F837008DF8000090
:102AA0009DF8000070B195F8210001280AD1D4E901
:102AB00001302268101843F10001401E41F1FF313E
:102AC00001F06AFB9DF81800202803D007484078E1
:102AD00001F07CFF0FB00020BDE8F08F0010002057
:102AE0000040420F800B0020800F0020400000209B
:102AF00070B5234A92F84A10202939D092F84A102A
:102B0000A2F5906303EB411C92F8491092F84940FA
:102B100001EB4101114491F83010A2F1800505EB61
:102B20008414202929D003EB41152D7EA8423CBFF7
:102B300004EB41014978F4D3DCE9036003EB411372
:102B4000DCF80850D3E902131468281846F1000293
:102B5000B1EB000C73EB020208D3081A02F00EFD71
:102B600004F1680181429CBF001B70BD002070BD54
:102B700040F68631702001F055FE4FF0FF3070BDF9
:102B8000001000200A4910B501EB401000F10804C4
:102B9000D4E9000100F05AFDE3890022C318207B2C
:102BA000514118185141401C41F1000110BD000075
:102BB000800B0020F8B56E4D012705F590640026C6
:102BC000D4E91012072828BFF8BDDFE800F0047F21
:102BD000A7BA5D4EC000C84370EA020005D100F0FC
:102BE000DFFF01F0DBFBC4E91001E08B10B101F065
:102BF000E9F8A0B1FFF7EAFCFF2084F83700D4E938
:102C00000223D04370EA030004D00520009601F0AF
:102C1000E7FB48B194F82100012817D109E04FF4EF
:102C20000561702001F0FEFD40F65801702001F0B2
:102C3000F9FD04F11000D0E90012A069081842EB78
:102C40000601401E41F1FF3101F0A6FA94F84A0056
:102C500094F84A1005EB4010406805EB41110A68F2
:102C600001B00121BDE8F040104794F8480060B180
:102C7000C84370EA020005D100F092FF01F08EFB1C
:102C8000C4E9100184F84860F8BDFFF79FFC4FF0DD
:102C9000FF30C4E9020094F837008DF800009DF879
:102CA000000070B194F84A0094F84A1005EB401007
:102CB000406805EB41110A6801B00621BDE8F0400B
:102CC000104740F67101702001F0ACFDFFF77EFC6B
:102CD00084F8367001F076F830B1D4E91001C043C1
:102CE00070EA010005D00AE040F68901702001F089
:102CF00099FD00F055FF01F051FBC4E9100194F873
:102D00004A0094F84A1005EB4010406805EB411169
:102D10000A6801B00021BDE8F040104700F068FDEE
:102D2000E08B10B101F04EF830B100F075FD0028D5
:102D300018BF84F82970F8BD40F69401702001F0A6
:102D400071FD0C4807600C4880680760F8BDFFF70C
:102D50003DFC94F84A0094F84A1005EB4010406896
:102D600005EB41110A6801B00521BDE8F0401047AC
:102D7000800B002008050040400000202DE9F34FA3
:102D8000F94897B00F460068DFF8E083C005C00D32
:102D90000ED0103840B20028B8BF00F00F0000F18C
:102DA000E020ACBF90F8000490F8140D40090CD05E
:102DB00038784FF00009002818BF012817D040F2DA
:102DC00021714FF0700001F02DFD98F84A004FF08E
:102DD0000109202806D0387848B140F21D717020D2
:102DE00001F020FD40F21A71702001F01BFDE04C53
:102DF00024B1002140F22470AFF300800020CDE91F
:102E0000100005A91291DB4817994FF0010A00EB59
:102E100041100190DFF858B3BBF1000F04D000213E
:102E200040F22F70AFF30080BAF1000F09D000BF5D
:102E300098F84950002488F83940B9F1000F07D0BC
:102E40003FE0CD48002818BFAFF3008062B6EFE73F
:102E50002E46012020EA0605C848402200EB8611D4
:102E600000EB851002F0AEFCBBF1000F04D0002196
:102E700040F25D50AFF3008006EB460105EB4500E4
:102E800001EB08024044118E018692F8321080F85E
:102E90003210BBF1000F04D0002140F26150AFF3BB
:102EA0000080BBF1000F04D0002140F23970AFF375
:102EB000008098F839008DF820009DF82000002847
:102EC000A8D1BBF1000F04D0002140F24370AFF352
:102ED000008001F063FA064602A80B908A46398901
:102EE000204661F31F400146BA7A204662F307008C
:102EF000FA7A62F30F203A78029462F31740CDE930
:102F00000441CDE906040394387880B3BDF8161067
:102F10009B48401A0B9901F10C0214A900F03AFCED
:102F20000022BDF8163030465146FEF74DFF84466C
:102F3000F87A00280CBF7A204C207A689DF814306B
:102F40001044BDF81620CDE902C11A441044801C7B
:102F500000F004FC009504903246534638690B9902
:102F6000FEF796FD002808BFCDE9026A4CE0FFE7B6
:102F70003046514600F06AFB824B024610EB030CD0
:102F80008E4641F10003D7E90401B0EB0C0C71EB64
:102F9000030331D229324EF10003821A71EB03028E
:102FA0002AD33A89521CB0EB020A61EB040C801A56
:102FB00071EB04003CBF4FF0000AD4461298009019
:102FC00014AB0BAA5046614600F064FBF87A002867
:102FD0000CBF7A204C200B993A8908447968114437
:102FE0000844801C00F0BAFBDDE91412CDE902129E
:102FF000401A20F07F4006E0711E4AF1FF30CDE913
:1030000002104FF47A700490BBF1000F04D000213D
:1030100040F24A70AFF300805849DDF85CA001EB44
:1030200085110A9111F81A1002A8012918BF022966
:1030300040D11194029A26F07F41531ADDF810C056
:1030400023F07F4312EB0C02511A21F07F41022B37
:1030500071D3B3F5000F98BFB1F5000F6BD8012401
:1030600014AB0EAA2946FEF7FFFE00286AD09DF891
:1030700038109DF850202B468A4267D00520FEF775
:10308000CBFC0A9901EB4A0148709DF838002028D2
:1030900001BF05EB4500404480F830A011941EBFED
:1030A0000A9901EB400080F801A02A46514603200E
:1030B000FFF738FBBBF1000F04D0002140F24F7046
:1030C000AFF300803048002818BFAFF30080EFF363
:1030D000108A72B6BBF1000F04D0002140F2557087
:1030E000AFF3008098F839008DF820009DF820009B
:1030F00000287FF48FAE1E4820B1002140F25D70A1
:10310000AFF30080DDE90101DDE90323DDE905BC62
:1031100000F10800DDF81CE080E80E581CB3144CE8
:1031200024B1002140F26A70AFF30080B9F1000FC2
:1031300044D12BE0FFE72A4651460420FFF7F2FA7C
:103140000124B7E72A4651460420B1E720291DBFD4
:103150000A9800EB4100407805EB450004BF40446D
:1031600090F830008DE738E004ED00E0001000201A
:1031700000000000800B002000000000800F0020F5
:10318000FF7F841E0040420F00000000119810F0E5
:10319000FF0F13D098F84A0020280FD124B1002146
:1031A00040F26F70AFF3008029460220FFF7ECFA7F
:1031B000109018B93878F0B101282BD03B4820B1D5
:1031C000002140F28C70AFF30080FF20B9F1000FB6
:1031D00018BF88F8390026D00124344D25B10021CC
:1031E00040F29D70AFF300801098314F022823D039
:1031F000012829D02DE02D4820B1002140F2777020
:10320000AFF3008098F8492004201799FFF78AFA55
:103210000124E2E7002C3FF4FDAD002140F2827072
:10322000AFF30080F6E598F849200121914388F832
:10323000491088F83900CFE7D8F81000801B02F059
:103240009DF9796821B904E079684FF0FF3001B148
:103250008847BAF1000F22D025B100214FF4F66063
:10326000AFF300808CB198F8490000EB4000404477
:1032700090F83100202808D025B1002140F2B77025
:10328000AFF30080787801F0A1FB25B1002140F276
:10329000BC70AFF3008019B02046BDE8F08F054840
:1032A000002818BFAFF3008062B6D5E70000000029
:1032B000400000200000000010B5202811D20E4967
:1032C00091F84930A1F1800202EB831C1CF8103008
:1032D0003BB191F8493002EB831212F81020012A19
:1032E00001D0002010BD91F8492001460020FFF7D1
:1032F00019FA012010BD00000010002070B50D4625
:10330000064600F04DFD0D4890F849200024803815
:1033100000EB821010F8141029B1611CCCB2202CE3
:10332000F8D3202070BD0648214600EB4410C0E9C8
:1033300000650120FFF7F6F9204670BD001000205F
:10334000800B00202DE9F84F01F028F806460F46C3
:1033500001F05CF9674CD4E90201C04370EA010056
:1033600003D04FF0FF30C4E9020094F82A00DFF8E0
:1033700088B1002510BB4FF40C71A06900F0DEFC91
:10338000D4E905232169181845EB0503081842EB19
:103390000301301A77EB010010D394F84A0094F837
:1033A0004A100BEB401040680BEB41110A680821F2
:1033B000904740F2CB31702001F034FA94F82100AC
:1033C00080B194F837008DF800009DF8000048B1F6
:1033D00000F05AFF94F8380050B14FF47971702022
:1033E00001F020FAF01C47F1000100F027FEF1E7A0
:1033F000012084F8380094F84A00202820D094F85E
:103400004A90202084F84A0084F84B0084F8365013
:1034100084F83750256000F00FFA84F8280094F8FB
:10342000498008EB480000EB040A9AF83000202895
:103430001CD00BEB401B9BF81A00012805D015E0AF
:1034400040F2E731702001F0EDF90122BBF81630AF
:1034500030463946FEF7B8FCDBE90223121A73EB5B
:10346000010224BF0BF10802C2E90001414601201C
:10347000FFF78AF90700F9D0204800EB881010F810
:103480001900022804D1424649460620FFF74AF9AE
:10349000FF2084F839009AF83100DFF86480202892
:1034A0001CBF98F8010001F091FA94F8280028B1A7
:1034B00000F09EF984F8285084F82950022F0FD08C
:1034C000012F18BFBDE8F88F4FF0FF30D8F8041077
:1034D000002908BFBDE8F88F01B0BDE8F04F0847EC
:1034E0002069801B02F04AF8D8F804100029F3D1B3
:1034F000BDE8F88F00100020800B0020800F002016
:1035000040000020F0B52C4C064685B094F84A00E7
:1035100020280AD0D4E90201C04370EA010009D092
:1035200040F64631702001F07DF940F645317020BB
:1035300001F078F994F84A00204901EB401000F1BD
:103540000807D7E9000100F081F8FA890025821800
:10355000387B694110186941401C41F1000101AA02
:1035600000928019694102AB04AA00F093F89DF81B
:1035700004000F288CBF01200020DDE90221821801
:1035800041EBE073C4E9022394F837008DF80000A2
:103590009DF80000002804BF05B0F0BD4FF0050005
:1035A000009500F01DFF00281CBF05B0F0BD40F6DF
:1035B0005B31702001F036F900100020800B0020F4
:1035C00070B51F4C202184F8301084F8311084F835
:1035D0003210002084F8490084F84A10431E20600D
:1035E000C4E9023384F82A0084F8360084F83700EE
:1035F00084F8280084F8290084F84B10411EC4E99F
:10360000101184F84800A4F182011022887001F89A
:10361000040F521EFAD100F019F90A4D012684F860
:103620003860FF202870084801F0B2F9687001F096
:103630000DFAA86001F040F884F84C6070BD0000FD
:10364000001000204000002055260000030E30B47A
:1036500043EA0123DFF838C0090EA3FB0C2501FB68
:103660000C51002403FB041147F6FF7303EA5023B7
:1036700043F6095C13FB0CF3C0F3080010FB0CF0DD
:1036800000F5807003EB50208018614130BC70471A
:103690000080841E2DE9F047DFF8B0C0089C8C45FF
:1036A00003D896219B2001F0BDF8CD0045EA50716A
:1036B0004FF22446B1FBF6F8B1FBF6F5DFF8909037
:1036C000C0F34F3709044FEA084AC919A8FB097823
:1036D000C91BB1FBF6F7B1FBF6F14AEA0701A1FB02
:1036E0000CC60025B0EB0C0C4FEA5C3048F2376694
:1036F00000FB06F04FEA1040164E4FEA402806FB4A
:1037000000C6154806FB00F04FEA505708EB0700CB
:1037100043F6095817FB08F808F5807743F608596F
:10372000A6EB5727C844FFB2B6EB582F84BF00273B
:10373000401C27700C0A0906081844EB0501C3E970
:103740000001C2F800C0BDE8F08700000080841EC0
:10375000000024F4F7C2FFFF6F0C0100410B48F298
:10376000376251430A0C094B510202FB030208481D
:10377000504300F586306E30400D5B4210FB03F382
:10378000B2EB532F88BF491C08447047F7C2FFFFB4
:103790006F0C0100430B48F2376C03FB0CF330B4A1
:1037A0001B0CDFF844C05C0203FB0C030F485843BA
:1037B0004FEA505C04EB0C0043F609541CFB04F484
:1037C00004F5807C43F60855A3EB5C2C2C440CF0EC
:1037D000FF0CB3EB542F84BF4FF0000C401C08606B
:1037E00082F800C030BC7047F7C2FFFF6F0C0100C9
:1037F000084890F900000028B8BF704700F01F018A
:10380000012202FA01F14009800000F1E020C0F835
:10381000001270479D0000200348007803280CBF69
:1038200001200020704700009800002001484088D7
:10383000704700009800002003480078022816BF57
:103840000328012000207047980000200248002132
:103850000170418070470000980000202DE9F04180
:10386000164C207A002827D04FF480718D05284609
:1038700001F0AFFE80464FF48271284601F0A9FEA8
:1038800000260746B8F1000F09D00120C5F808034B
:10389000207920B12671E06908B18047E66137B12F
:1038A000C5F804610220C5F8080300F00FFA40468D
:1038B000BDE8F04100F030B8BDE8F0814C000020D8
:1038C00010B501F03AFF30B901F058FF18B901F016
:1038D0006BFF002802D002490220086010BD0000E2
:1038E000340C004070B500F05BF900F06BFA094C45
:1038F0004FF0804530B1FFF7E3FF0120286104203D
:10390000607204E0032060720120C5F80403002007
:10391000A07170BD4C0000202DE9F04106464FF02B
:1039200080454FF48671284601F053FE1F4C8046B7
:103930002778E01D01F0CBFE10B140F2C51114E074
:1039400046B1607A032805D104206072FFF7B8FF02
:10395000012028610026B8F1000F18D0C5F80C61CD
:10396000607A042804D040F2D7116D2000F05AFF8D
:1039700001F0E3FE28B901F001FF10B901F014FFD6
:1039800008B10B4806600220607200F0EDF83FB10C
:103990002670607A022801D1FFF7A4FF00F0E4F856
:1039A000BDE8F0410148C01D01F0A8BE4C00002058
:1039B000340C00402DE9F041484C00260746A66132
:1039C00081780078A0726171A6714FF001084FF004
:1039D0008045052825D2DFE800F0100306202200EC
:1039E000C4F8188009E000F0DBF80121284601F056
:1039F000F5FD0028F9D00220A06101F01DFEC0B144
:103A000000F0FAF9217E01F00301884211D1B87962
:103A100060B10220C5F8040344E03148ECE73148C6
:103A2000EAE740F21E316D2000F0FCFE00F0B8F92C
:103A300038E0C5F80C80C5F80461A069C5F8180520
:103A400001F067FE40B901F06EFE28B901F082FE78
:103A500010B901F093FE38B14FF08050D0F8440215
:103A60002149C0F34230086001F053FE40B901F033
:103A70005AFE28B901F06EFE10B901F07FFE18B1B0
:103A800019491031C1F80080C5F808800220C5F836
:103A90000403B87930B900F029F80220C5F808030A
:103AA000C5F80461607970B1387860B900F08AF9BE
:103AB000074600F02DFF6FF0004117B1C4E9041074
:103AC00001E0C4E904010121284601F087FD08B1A5
:103AD00000F072F96672BDE8F08100004C00002031
:103AE00001000200010003003C0500402DE9F04107
:103AF0004FF08045D5F8040310F0020F11D0164C9A
:103B00002068C04340F30016206840F01000206099
:103B10004FF4827739462846761C01F05AFD28B1C9
:103B20000AE040F2D5216D2000F07CFE01F048FE55
:103B300002E000BF01F042FE3946284601F049FD8F
:103B40000028F7D000F02CF9002E03D1206820F0D7
:103B500010002060BDE8F08110ED00E00148C08950
:103B6000704700004C00002010B5EFF3108472B6CF
:103B70000A48417829B14178491E4170417829B1FC
:103B800008E04FF496716D2000F04CFE807808B983
:103B900000F026F9002C00D162B610BD4C000020C8
:103BA00010B5EFF3108472B606484178491C417095
:103BB0004078012801D101F029FD002C00D162B626
:103BC00010BD00004C000020054810B5C17821B19F
:103BD00000210171C170FFF7C7FF002010BD000078
:103BE0004C00002070B50C4CE17861B90125E570FE
:103BF000E061FFF7D5FF00F0E5F830B1E06910B102
:103C000080470020E061002070BD4FF080402571AA
:103C1000C0F80453F7E700004C0000202DE9F04104
:103C200005006FF015003DD0297804293AD8002905
:103C3000697839D0002935D1A978002932D10020FE
:103C400001F0B6FC002001F0A6FC4FF080484FF0D8
:103C5000FF31C8F808130026C8F80061C8F80461ED
:103C6000C8F80C61144C6670A888A08101F0C5FCEE
:103C7000012708B1E77067700121404601F0AEFCF2
:103C800008B100F099F840F2F550E0812846FFF7BE
:103C900091FE2772002001F07EFC4FF0E0213046BB
:103CA000C1F80071BDE8F0810029FBD02029F9D8C6
:103CB000A9782129C3D9F5E74C0000200248407AB1
:103CC000002800D0012070474C000020F8B51A4CA5
:103CD000A07A00280FD1207E00F0030001F09BFCA9
:103CE000002808D0EFF3108172B6FFF7E7FF18B194
:103CF000002900D162B6F8BD0120607201B962B638
:103D00000820C506C5F808034FF42070ADF8000080
:103D1000BDF80000411EADF80010F9D20026C5F82C
:103D20000C610548C01D01F0E5FC2670FFF7DAFDC7
:103D30000820C5F80403F8BD4C00002070B5024609
:103D40000020002926D0002A24D0A2FB0101401E19
:103D5000114A41F1FF31914203D371216D2000F0EE
:103D600061FD0E4D090341EA10512A0CC0F30F13F7
:103D7000B1FBF2F4B1FBF2F009042004C918A4FB72
:103D80000534C91AB1FBF2F3B1FBF2F140EA0300CA
:103D900000F1010070BD000040420F00000024F45B
:103DA00010B5044C207E00F0030001F034FC002824
:103DB000F8D010BD4C000020014901200870704768
:103DC0009E0000204FF08040D0F8000118B9034851
:103DD0000078002800D00120704700009E000020DD
:103DE0004FF08040012141600021C0F800110148DE
:103DF000017070479E0000200248006800F0030038
:103E0000704700001C04004010B531B1012907D0F3
:103E100040F28A3105A000F0D9FCD0F8140401E08A
:103E2000D0F8080400F0010010BD00006E72665F5B
:103E3000636C6F636B2E68002DE9F0470024DFF898
:103E40008090204D4FF480374FF4A0784FEA04065D
:103E5000D5F8042307FA04F008EB840102421AD0D3
:103E6000184A5258BAB16E50A10001F1804101F5D3
:103E70003041D1F84015D9F80020891A21F07F414E
:103E8000022902D3B1F5000F05D9C5F80803201D9A
:103E9000C0B2FEF78FFE601CC4B2022CD8D3D5F896
:103EA000040128B1C5F8046107488168491C816094
:103EB0004FF0E0214FF40060C1F88002BDE8F087C8
:103EC00004B5004000B00040000000202DE9F041A2
:103ED000384D2878FF2868D0A81C0122017859B1F4
:103EE000012908BF6A7002D06978002958D00221E0
:103EF0000170407800F024FB2F4CD4F804034FF0FD
:103F0000000810F4002F4FF480774FF0E0260AD01D
:103F10002A48006838B1032000F012FBC6F880720E
:103F20000320FEF747FED4F8040310F4802F0AD0D4
:103F30002348006838B1022000F002FBC6F8807206
:103F40000220FEF737FED4F8040310F4003F0AD035
:103F50001C48006838B1012000F0F2FAC6F88072FF
:103F60000120FEF727FED4F8040310F4803F08BFB9
:103F7000BDE8F08114480068002808BFBDE8F08162
:103F8000002000F0DDFAC6F88072FF202870C5F826
:103F90000480C4F80082BDE8F0410020FEF70ABEAC
:103FA00040F28D416C2000F03DFCBDE8F041062060
:103FB000FEF700BE00000020008000404C81004061
:103FC00048810040448100404081004001221102AC
:103FD0004FF0E0230020C3F8801103F5C073BFF356
:103FE0004F8FBFF36F8FC3F800110E4941F8042FB4
:103FF000431EC1F80433C1F83C05C1F83C010A4B2B
:10400000C3F84005C1F840011B1DC3F84005C1F8C5
:1040100044011B1DC3F84005C1F84801CA600349AB
:10402000487070470080004004800040000000207D
:10403000014800687047000004B500402DE9F05FBA
:10404000DFF830810446A8F1020798F800A0D7E90C
:1040500004200E46BAF1010F06D182EA0401704035
:10406000084308BFBDE8F09F4FF040404249086058
:10407000BAF1000F07BF4FF4403000234FF4003077
:104080000123DFF8F8C0CCF84803CCF808034FF45C
:10409000A071002543B900BF01EB83004CF800502C
:1040A000581C10F0FF03F7D04FF4803124F07F400C
:1040B0000B46CCF80813CCF84813CCF840513049E3
:1040C000D1F80090A0EB090929F07F4B4FF00109CE
:1040D000BBF1020F2ED3BBF5000F2BD8CCF8400557
:1040E000CCF84433BAF1000F05D00868101A20F05C
:1040F0007F400228F9D3C7F804903D70FFF766FFB0
:104100002048D0F8041565F30101C0F80415D0F873
:104110000825022161F30102C0F80825102191FA57
:10412000A1F1B1FA81F1092909D940F2633116A050
:1041300000F04CFB40F20E316C2000F073FBC0F835
:104140001015C0F80C907968C0F800124FF0E0200C
:104150004FF48071C0F88012C0F800110D4980043E
:104160000860C7E90446042088F8010088F8009038
:10417000BDE8F09F0200002008F5014000B00040BB
:1041800004B50040008000406E72665F74696D6522
:10419000722E680004F501402DE9F047314CD4E956
:1041A000042382EA000C4B405CEA030314BF0123A2
:1041B0000023DFF8B4C09CF80080B8F1020F02D0F1
:1041C000002B3FD003E0002B08BFBDE8F0876378E9
:1041D000BBB3264D4FF040432B60254E4FF4803546
:1041E00020F07F432F46C6F80853C6F848530025F1
:1041F000C6F840511F4DD5F80090A3EB090929F0EE
:104200007F49B9F1020F27D3B9F5000F24D8C6F8BA
:104210004035C6F84473B8F1000F05D02B68D31AA7
:1042200023F07F43022BF9D3134D022253072B6057
:10423000C4E9040104208CF801008CF80020BDE8DA
:10424000F08704E04FF447716C2000F0EBFA4FF474
:1042500048716C2000F0E6FA4FF44B716C2000F0CE
:10426000E1FA0000000000200200002008F50140F3
:1042700000B0004004B5004004F501400149D1E917
:1042800004017047000000202DE9F047DFF8F4C07A
:104290009CF80040002C07BF4FF4403200214FF43F
:1042A000003201213848C0F84823C0F80823002311
:1042B000002908BF4FF4A07507D100BF05EB8102AC
:1042C0008350491C11F0FF01F8D0022C04D040F2B9
:1042D00037316C2000F0A6FAEFF3108272B62B4C47
:1042E000D0F80415D0F804512DB1A168491CA16083
:1042F000C0F80431F4E7A06802B962B6020A000609
:10430000401842EB0301D4E90428C01C41F100012C
:104310001F4F01261F4D80EA020981EA080859EA69
:1043200008080ED0D7F80080A2EB080828F07F48D4
:10433000B8F1040F05D3B8F5000F02D8FFF77EFEE1
:104340001BE03868101A20F07F40022813D3B0F524
:10435000000F10D810494FF080400860666023704D
:104360006E60EE604000091F086004208CF80100B8
:104370008CF8006001E0666023706068C5F8000298
:10438000BDE8F0870200002000B0004000000020DF
:1043900004B500400080004008F5014010B4EFF380
:1043A000108472B60C4A0D494FF0000CD2F8040587
:1043B000D2F804312BB18868401C8860C2F804C16F
:1043C000F4E7896804B962B60A0A0906081810BC3D
:1043D00042EB0C017047000000B0004000000020DC
:1043E0002DE9F041514922F07F4C01240B784978A6
:1043F00000254FF4A07206287ED2DFE800F0030308
:1044000003035A5A4A4FD7E904866FEA080878EA44
:10441000060604BF7E78002E02D0022B05D024E0D1
:104420004FF461716C2000F0FDF90E1FF6B202EB43
:10443000860202F1804606F530460022012B02D0AA
:10444000022B08D00EE0042924BF3768002F08BFD4
:104450004FF0004206E0042924BF3768002F08BF50
:1044600042F0804212F0804FE7D1324A00F1100151
:1044700004FA01F1C2F808134FF0400303EB800384
:10448000DBB213441C6002EB8000D0F84035ACEB8B
:10449000030323F07F43032B3EBFC0F840550020A9
:1044A000BDE8F081C0F840C5C2F804130120BDE8A2
:1044B000F08133B1814204D140F2A3316C2000F08D
:1044C000B1F9001FC1B2022904D34FF4F5716C2079
:1044D00000F0A8F9184B4FF480308840C3F8080367
:1044E000C3F8480302EB81029D50144A1268ACEBFA
:1044F000020222F07F4200E012E0022A0DD3B2F560
:10450000000F0AD803EB8101C1F840C5C3F80403CA
:10451000C3F844032046BDE8F0812846BDE8F08199
:1045200040F2A7316C2000F07DF90000020000206D
:10453000000000200080004000B0004004B50040B2
:10454000F8B5012100264FF4A077062849D2DFE80C
:1045500000F003030303171700F1100201FA02F23F
:104560002249C1F8082301EB80030022C3F840254B
:1045700007EB80028E501E4951F820000090F8BDD4
:104580001C4D011FCCB2297881B16A7882420DD1CD
:10459000194A4FF040401060012908BFFFF716FD8F
:1045A0002E70164A4FF0FF30C2E9040014494FF450
:1045B0008030A040C1F80803C1F84803A0000844B7
:1045C000D0F840050F4A1268801A20F07F40022878
:1045D00024BF07EB84000E500B4850F824000090D5
:1045E000F8BD4FF486616C2000F01CF9008000409B
:1045F000408100400200002008F50140000000203A
:1046000000B0004004B5004040B100401A480078B6
:10461000002807BF4FF4403000214FF40030012143
:10462000164AC2F84803C2F808030020002908BF50
:104630004FF4A07C07D100BF0CEB8103D050491C84
:1046400011F0FF01F8D00E494FF0FF32C1F80823F6
:10465000C1F84005C1F840010A1DC2F84005C1F883
:104660004401121DC2F84005C1F84801121DC2F8EC
:104670004005C1F84C0170470200002000B0004026
:104680000080004010B506280CD2DFE800F00303DC
:1046900003030505064902E0001F0649C0B201EB0D
:1046A000800010BD40F2CD316C2000F0BBF800005E
:1046B0004081004040B1004070B530480024304D8A
:1046C0000470FF202870601EC5E90400AC60FFF78D
:1046D0007DFC01234FF0E02CDE02CCF88061BFF3BB
:1046E0004F8FBFF36F8FCCF88062264A5360936080
:1046F000254801680029FCD12448C2F80803C2F803
:104700004803C2F84041C2F84441C2F80441CCF821
:104710000061E868002808BF136027D0DFF874C084
:104720001B49CCF81015CCF814051B48C0F810290B
:104730001A4D4FF40020052128601948C0F8401593
:10474000C0F80030D0F840110029FBD0154D4FF4CF
:10475000002129604360C360C0F84041C0F8404573
:10476000CCF81045CCF81445CCF814454FF48270C1
:10477000C2F844030220C2F8040370BD0200002006
:104780000000002000B0004004B50040020003001B
:104790004081004098F001404CF0014004F5014098
:1047A0000080004008F50140BFF34F8F05480168C5
:1047B000054A01F4E06111430160BFF34F8F00BF70
:1047C000FDE700000CED00E00400FA0572B6034AB4
:1047D000526802B19047FFF7E7FF00006C0000202D
:1047E000064810B50021016001210160084600F073
:1047F00042FFBDE81040012000F030BFFC1F004028
:10480000074810B501214160891EC0F808130C202B
:1048100000F031FFBDE810400C2000F01FBF000089
:1048200000C000400EB572B60F4A5568D5B10022DF
:1048300003466E460A2403E0B0FBF4F0521CD2B2E9
:104840000028F9D1B05409E0B3FBF4F004FB1030B8
:10485000B3FBF4F3521ED2B23030B054002AF3D17D
:104860003046A847FFF7A0FF6C0000202DE9F0417B
:10487000194C0646174660780D4618B14FF0FF30C8
:10488000BDE8F081FCF75AFE06B9144E676025704A
:10489000FFF7A6FFFFF7B4FF3046FFF7BFF90600AA
:1048A000EED1FEF78DFEFFF77BFAFFF70FFA00F06F
:1048B000CAFD284600F0D2FE0120002D09DB05F0DC
:1048C0001F0100FA01F16A09920002F1E022C2F828
:1048D000001160703046D3E76C000020985600004D
:1048E00001484078704700006C000020074890F9AC
:1048F0000000002809DB00F01F020121914040095F
:10490000800000F1E020C0F8001270476C00002029
:104910002DE9F04101254FF0E02229034FF0000876
:104920004046C2F88011BFF34F8FBFF36F8F164C14
:10493000C4F800010C2000F0BDFE144E3068C043E6
:1049400040F30017306840F010003060C4F80453A2
:1049500025607F1CD4F8000108B11FB106E000F00B
:104960002DFFF7E7306820F010003060D4F80865BC
:104970006560C4F80853C4F800810C2000F09AFE6A
:104980003046BDE8F081000000C0004010ED00E0BE
:1049900010B5024605200C4904E000BF01EBC0033E
:1049A0001B7933B1401EC0B2F8D248216920FFF70D
:1049B00039FF41F8302001EBC00100224A718A71B1
:1049C00001220A7110BD00008810002010B50528D2
:1049D00001D3582106E00A4901EBC0000179012901
:1049E00003D059216920FFF71DFF41798279491CC5
:1049F000C9B28A4200D04171BDE81040FFF776BFCE
:104A00008810002070B505250E4E0F4C16E0217859
:104A100006EBC1000279012A08D1427983799A42D2
:104A200004D04279827156F8310080472078401CCA
:104A3000C0B22070052801D3002020706D1EEDB299
:104A4000E5D270BD881000209F00002000B500F066
:104A500060FE40B900F067FE28B900F07BFE10B997
:104A600000F08CFE08B1024800BD024800BD000005
:104A70000C05004000E7014010B500F07FFE30B3A8
:104A8000EFF31080C8B1002172B6124802680368C3
:104A9000C2F3001243F0100303604FF0E023D3F899
:104AA0000042D3F804321C4300D040BF20BF00BFF7
:104AB00000BF00BF00BF12B105E00121E4E70268BA
:104AC00022F010020260002900D062B610BD20BFA3
:104AD00010BD000010ED00E0014909688968084731
:104AE0007400002001490968096908477400002022
:104AF00001480068406800477400002001490968C7
:104B000009680847740000208D590000855900008D
:104B1000795900008959000081590000094810B5F1
:104B20008178042908D010290AD0202908D04FF410
:104B3000E5716B20FFF776FE102181701AF076F890
:104B400010BD0000780000200B4810B5017831B18D
:104B5000EFF3108472B68178102905D008E04FF485
:104B600046716B20FFF75EFE08218170FEF7EAFBBD
:104B7000002C00D162B610BD7800002070B5124C38
:104B8000207858B1EFF3108572B6607948B10228E9
:104B900009D040F2E1216B20FFF744FE40F2CE2124
:104BA000F9E7012003E0A1780020042901D0607119
:104BB00002E060711AF02AF805B962B6E078BDE843
:104BC0007040FFF703BF0000780000200E4810B5CA
:104BD000017859B1EFF3108172B642794AB1012AD6
:104BE00009D040F209316B20FFF71CFE40F2F92199
:104BF000F9E7022200E00022427101B962B6C078F2
:104C0000BDE81040FFF7E2BE7800002010B5134C5D
:104C1000207810B140F28A211DE000206070012050
:104C2000A0700F484FF4C851016005210181B721E0
:104C300041810C4941600C48FFF7AAFEE070002159
:104C40000A48FEF75BFB2071202802D0012020706B
:104C500010BD40F299216B20FFF7E4FD78000020A1
:104C600068100020FF3F420F954D0000C54C00002A
:104C7000114810B58178042901D0002010BD807939
:104C8000A8B1FFF7D5F9441C012000F0DFFC001BA0
:104C90000002C11700EB11600012002800DC0020A8
:104CA0000649A0FB0101C00B40EA414010BD044889
:104CB00001684089081A10BD7800002040420F00AA
:104CC0006810002070B50E46FFF7B2F900252E4C93
:104CD000082E31D2DFE806F030043B3B211C4C416A
:104CE0000121022000F0FCF8607858B10420A07087
:104CF00026480068A060A571607902283FD019F0AD
:104D000085FF3CE02020A070BDE87040FEF71ABB94
:104D100040F212216B20FFF785FD607800280BD050
:104D2000A078042809D04FF0E0210220C1F88001CA
:104D3000BFF34F8FBFF36F8F70BD00F073F818B1E2
:104D40001348D0F84401B0B913F02AFE70BD012118
:104D5000022004E00120A07070BD0121282000F095
:104D6000BFF860780028F5D0BDE8704000F096B834
:104D700000F058F818B1BDE87040FFF7CFBEBDE8AD
:104D8000704000F057B80000780000206810002044
:104D900000B0004070B5EFF3108472B6204D0020D3
:104DA00069796871C1B3012906D0022918D084F34A
:104DB000108840F2AB1128E084F31088687810B1B5
:104DC0004FF4AC7121E00021142000F089F801209B
:104DD0006870A878012821D1BDE8704000F05EB865
:104DE000697849B16870A878082815D007DC0228CE
:104DF00012D0042807D10BE040F2691105E0102819
:104E000006D0202808D040F285116B20FFF70AFD5C
:104E10002020A870FEF796FA84F3108870BD000079
:104E20007800002002488079012800D000207047D7
:104E30007800002070B50320FDF75AFE154D296853
:104E4000814200D8084606460321FDF759FD124C61
:104E5000012130B1012818D040F24B116B20FFF72F
:104E6000E1FC2868B042A06806D1FEF74BFB286839
:104E7000A1680844A06070BD3044A060A171698938
:104E8000401ABDE87040FEF73DBBA1716889A1687A
:104E9000081AF6E768100020780000200E4810B5C8
:104EA000012101700021018103228272C17200F18F
:104EB00018010A684260496801610848022181704E
:104EC00005490079FDF75AFF002804D140F20F117F
:104ED0006B20FFF7A7FC10BD5010002078000020C9
:104EE0000B4A10B5927812B1531E1A4201D0E92133
:104EF00009E021B10240900608D1EE2103E082438F
:104F0000900603D1F2216B20FFF78CFC10BD00004E
:104F1000780000200149012088707047840000203B
:104F20002DE9F04786468C460846089E154674468D
:104F30001946002B40F0C2808542B2FA82F245D970
:104F40004AB1C2F1200300FA02FC2EFA03F39540A5
:104F500043EA0C0C94404FEA154EA8B2BCFBFEF895
:104F6000230C0EFB18CC08FB00F943EA0C439945CF
:104F700028D9EB1808F1FF3704D2994502D9A8F1D6
:104F800002072B44A3EB0903A4B2B3FBFEFC0EFB08
:104F90001C330CFB00F044EA0344A04214D92C1942
:104FA0000CF1FF3304D2A04202D9ACF102032C442D
:104FB000241A43EA07401EB1D440002334607360D2
:104FC000BDE8F0874746DDE76346F1E792BB431B48
:104FD00001214FEA154EAFB2B3FBFEFC200C0EFBD5
:104FE0001C330CFB07F840EA0343984562D9EB18E1
:104FF0000CF1FF3004D2984502D9ACF102002B44E9
:10500000A3EB0803A4B2B3FBFEFC0EFB1C330CFBAA
:1050100007F744EA0344A7424ED92C190CF1FF3399
:1050200004D2A74202D9ACF102032C44E41B43EAA8
:105030000040C0E7C2F1200320FA03F19540904000
:105040002EFA03F303434FEA154EAFB2B1FBFEFC59
:105050000EFB1C10190C0CFB07F841EA00418845B7
:1050600004FA02F422D969180CF1FF3004D2884501
:1050700002D9ACF102002944A1EB08019BB2B1FBBB
:10508000FEFC0EFB1C110CFB07F743EA01439F4299
:105090000ED9EB180CF1FF3104D29F4202D9ACF1CA
:1050A00002012B44DB1B41EA004192E76046E3E743
:1050B0006146F7E76046A3E76346B7E7834206D950
:1050C00016B9002108467BE7C6E900E0F9E7B3FA24
:1050D00083F78FB9834201D3724508D8BEEB02042F
:1050E00060EB030301209C461EB9002168E73846A7
:1050F000FAE7C6E9004CF8E7C7F1200CBB4022FAFA
:105100000CF41C432EFA0CF120FA0CF3B8400143C6
:105110004FEA14490EFA07F5B3FBF9F81FFA84FEBB
:1051200009FB18300B0C08FB0EFA43EA00439A45C2
:1051300002FA07F240D9E31808F1FF3004D29A4589
:1051400002D9A8F102002344A3EB0A0389B2B3FBFE
:10515000F9F809FB183308FB0EFE41EA03418E45BE
:105160002CD9611808F1FF3304D28E4502D9A8F179
:105170000203214443EA0040A0FB0298A1EB0E0188
:105180004145CE46434602D306D14D4504D2B9EB44
:10519000020E68EB04030138002EA6D0B5EB0E0218
:1051A00061EB030101FA0CFC22FA07F34CEA03035A
:1051B000F940C6E9003198E74046C5E74346D9E7DC
:1051C00010F8012B11F8013B012A28BF9A42F7D0B1
:1051D000D01A7047034613F8012B002AFBD1181A86
:1051E00001387047FCF7AAB970B514460D46001B8C
:1051F0006FF07F01884201DA084602E07F2800DD77
:105200007F20194640B2FCF7D7F928706C70002156
:105210002044A97040B270BD7CB5044600260B380E
:1052200015460F2801D94F2108E0C0B20A460146B1
:1052300001AB0420FCF704FA18B158216420FFF7F1
:10524000F1FA04EB8402334669469DF9040002F644
:105250002E12FCF743F99DF800102970BDF80110DB
:10526000A5F801107CBD4FF0FF307047002070475B
:10527000002070474FF0FF307047704770470020A4
:1052800070470021017070474FF0FF3070474FF0BA
:10529000FF3070470021017070474FF0FF307047BA
:1052A0004FF0FF3070470078002801D06FF01500F4
:1052B0007047002070470022FFF796BF042802D2F3
:1052C0004FF02800704702D14FF0100070474FF0A8
:1052D00000007047C0B270472DE9F0410D00044650
:1052E0004FF002064FF0010708D02878D0B101280E
:1052F00007D0022814D003283ED116E080F8297088
:105300000EE06868C82803D30321FDF7F9FA08B155
:10531000002607E02046696800F033F8012601E026
:10532000FCF7ECFA3046BDE8F08194F82400002840
:10533000F6D16868FCF7B4FAF0B16968087830B162
:1053400094F82600052808D04FF4BE7111E02046DD
:1053500000F01FF884F82570E2E7204600F032F8EC
:1053600094F82700214600F00AF80028D8D14FF41D
:10537000BF716A20FFF756FA84F82970D0E7FDF76D
:10538000FDBC024603784068084450605038FEF780
:10539000B9B8012202700022C2720A7972B10022E9
:1053A00002814A7962B1032282728A686132426064
:1053B000C9680161032180F8261070472B22EFE7AE
:1053C0000222F1E710B500220270C2720A79A2B17E
:1053D000002202814A7992B103228272CA68613244
:1053E0004260D0E906428968CB1761185A41C0E98A
:1053F0000412042180F8261010BD2B22E9E70222B6
:10540000EBE770B505460C4691F82700FDF754FF11
:1054100078B1204600F010F8226A0921284690470A
:10542000002808D00078002805D0DC216A20FFF78A
:10543000F9F9D821FAE770BD002180F8261000F8AC
:10544000241F4170704770B5FCF7B4FA054600247C
:1054500006E02046FCF7B4FAFFF7EEFF641CE4B266
:10546000AC42F6D370BD2DE9F0410D46FCF7A8FA29
:10547000040008D094F826006FF02206012806D018
:10548000022811D103E06FF00100BDE8F0816FF058
:1054900015075DB12846FCF703FA38B1287838B112
:1054A00094F82600022808D03046EEE73846ECE7AC
:1054B00029462046FFF76DFF03E029462046FFF707
:1054C00081FF94F827002146FFF759FF08B100201B
:1054D000DBE740F2B1216A20FFF7A4F910B50446DA
:1054E000FCF76EFA010005D091F824006FF022025B
:1054F00078B902E06FF0010010BD91F8260040B1CC
:10550000022808D0012806D0012081F824000020BC
:1055100010BD104610BD2046FFF773FFF7E72DE9D9
:10552000F0410E460746FCF745FA054600240BE01D
:105530002046FCF745FA90F8260018B14FF0FF30EE
:10554000BDE8F081641CE4B2AC42F1D3082E02D96C
:105550006FF01500F4E717B13146384601E000213D
:105560000846BDE8F041FCF711BA10B50020FFF77E
:1055700089F80068002818BF012010BD410A43F6D1
:1055800009525143C0F3080010FB02F000F580708F
:1055900001EB50207047002809DB00F01F020121B9
:1055A00091404009800000F1E020C0F8801270476F
:1055B00000280DDB00F01F0201219140400980000E
:1055C00000F1E020C0F88011BFF34F8FBFF36F8F61
:1055D00070474058002800D001207047D0F80C24B4
:1055E000D0F80C04C2F3004200F001001AB1884266
:1055F00001D1012070470020704710B501218807B4
:10560000FEF702FC002800D0012010BD4FF08040C2
:105610000121016070474FF08042D2F81814D2F88F
:105620001824C1F3004102F0030219B1824201D1F2
:10563000012070470020704710B500214FF08040D6
:10564000FEF7E2FB002800D0012010BD800000F131
:10565000804000F53040D0F840057047002809DB55
:1056600000F01F02012191404009800000F1E0207C
:10567000C0F88012704700280DDB00F01F020121E6
:1056800091404009800000F1E020C0F88011BFF394
:105690004F8FBFF36F8F704700100200FA000000B9
:1056A000C01A7E9E0C2A42908AFBDC220D391E769F
:1056B000A74CC85D002809DB00F01F0201219140C2
:1056C0004009800000F1E020C0F880127047EFF33D
:1056D000108172B60278012A01D0012200E0002276
:1056E0000123037001B962B60AB1002070476FF060
:1056F000220070470021017008467047EFF31081C7
:1057000072B60022027001B962B600207047FFF73E
:1057100079B94FF08050D0F830010F2801D0002027
:105720007047012070474FF08050D0F830010A28B0
:1057300001D0002070470120704700B5FFF7F3FF4C
:1057400020B14FF08050D0F8340108B1002000BDE6
:10575000012000BD4FF08050D0F830010E2801D05C
:1057600000207047012070474FF08050D0F8300182
:10577000102801D000207047012070474FF0805062
:10578000D0F83001062803D0401C01D0002070471B
:10579000012070474FF08050D0F830010D2801D023
:1057A00000207047012070474FF08050D0F8300142
:1057B000082801D00020704701207047FFF75CB92E
:1057C000FFF75AB9F0B480EA010C03461CF0030F4E
:1057D0003CD113F0030F0BD0002A04BFF0BC70477C
:1057E00011F801CB03F801CB521E13F0030FF3D1D4
:1057F000032A4FD9B2F1004F4CD2C2F1000C4FEA4C
:10580000EC740CEB947C4FEAAC0CCCF1000CBCF1CA
:10581000000F1BDD0D1F1C1F1CF0010F03D055F8DE
:10582000046F44F8046F5FEA6C0607D06F68676026
:1058300055F8087F44F8087F761EF7D101EB8C01FC
:1058400003EB8C03CCF1000C02EB8C02002A04BFAA
:10585000F0BC7047B2F1004F26D2002ADCBFF0BC8A
:105860007047491E5B1E12F0010F03D011F801CFE3
:1058700003F801CF521004BFF0BC704791F801C08B
:1058800083F801C011F802CF03F802CF521EF5D100
:10589000F0BC7047042AD9D351F804CB121F43F847
:1058A00004CB042AF8D2D1E711F801CB03F801CBDD
:1058B000521EF9D1F0BC704770B4034601F0FF0CE2
:1058C00010F0030F09D0002A04BF70BC704703F822
:1058D00001CB521E13F0030FF5D1C9B241EA0121E9
:1058E00041EA0145032A39D9B2F1004F36D251427B
:1058F000CC1701EB947189104E42002E11DD191F57
:1059000016F0010F18BF41F8045F741004D04D6009
:1059100041F8085F641EFAD1714203EB860302EB83
:105920008102002A04BF70BC7047B2F1004F1DD243
:10593000002ADCBF70BC7047591E12F0010F18BF5F
:1059400001F801CF521004BF70BC704781F801C04C
:1059500001F802CF521EF9D170BC7047042AE0D37F
:10596000121F43F8045B042AFAD2DAE703F801CBEA
:10597000521EFBD170BC7047072101700020704798
:1059800000207047002070470020704708B10020B9
:1059900070476FF01500704710B50446FFF768F9BF
:1059A000A04201D9012010BD002010BDD8ECF0F4B8
:1059B000F8FC0002030405060708000000000000D0
:1059C00000000000000000000000000000000101D5
:1059D0000101020202020303030304040404050597
:1059E000050506060708090A0B0C0D00000000005B
:1059F00000000000000000000000000000000001A6
:105A0000010101020202020303030304040404056A
:105A100005050506060608092DE9F04F9FB08246E8
:105A2000039116461C460025307810B9284600F030
:105A300085BD731C2528069306D00399D0470028FE
:105A4000C0F27C8501351BE21822002110A83AF033
:105A5000FDF97378252B00F0BA800023711C98465D
:105A60009E469C4618460F4611F8012B2B2A00F043
:105A7000DD8000F2D480202A00F0DB80232A00F0B1
:105A8000DB802BB19DF8483043F040038DF848305F
:105A9000B8F1000F05D09DF8483043F020038DF891
:105AA0004830BEF1000F05D09DF8483043F0100398
:105AB0008DF84830BCF1000F05D09DF8483043F018
:105AC00008038DF8483028B19DF8483043F00403AE
:105AD0008DF848309DF8483003F04401442903D143
