:1000000000C7002085100200D56A040059100200C4
:10001000591002005910020059100200000000009F
:10002000000000000000000000000000990802002D
:1000300059100200000000003508020059100200AB
:1000400055090200DBB00400550902005509020001
:100050005509020055090200550902005509020020
:10006000ABB004005509020055090200C5B00400F8
:100070005509020055090200550902005509020000
:1000800055090200550902005509020055090200F0
:1000900055090200550902005509020055090200E0
:1000A00055090200550902005509020055090200D0
:1000B00055090200550902005509020055090200C0
:1000C00055090200550902005509020055090200B0
:1000D00055090200550902005509020055090200A0
:1000E0005509020055090200550902005509020090
:1000F0005509020055090200550902005509020080
:1001000081F0004102E000BF83F0004330B54FEAC8
:1001100041044FEA430594EA050F08BF90EA020F35
:100120001FBF54EA000C55EA020C7FEA645C7FEAC8
:10013000655C00F0E2804FEA5454D4EB5555B8BFEB
:100140006D420CDD2C4480EA020281EA030382EA5C
:10015000000083EA010180EA020281EA0303362DEE
:1001600088BF30BD11F0004F4FEA01314FF4801CC1
:100170004CEA113102D0404261EB410113F0004FD3
:100180004FEA03334CEA133302D0524263EB43038A
:1001900094EA050F00F0A780A4F10104D5F1200E28
:1001A0000DDB02FA0EFC22FA05F2801841F1000183
:1001B00003FA0EF2801843FA05F359410EE0A5F157
:1001C00020050EF1200E012A03FA0EFC28BF4CF088
:1001D000020C43FA05F3C01851EBE37101F000453E
:1001E00007D54FF0000EDCF1000C7EEB00006EEB4B
:1001F0000101B1F5801F1BD3B1F5001F0CD34908D5
:100200005FEA30004FEA3C0C04F101044FEA44522B
:1002100012F5800F80F09A80BCF1004F08BF5FEAB2
:10022000500C50F1000041EB045141EA050130BD92
:100230005FEA4C0C404141EB0101013C28BFB1F5A4
:10024000801FE9D291F0000F04BF01460020B1FAEF
:1002500081F308BF2033A3F10B03B3F120020CDAC2
:100260000C3208DD02F1140CC2F10C0201FA0CF0A0
:1002700021FA02F10CE002F11402D8BFC2F1200C05
:1002800001FA02F120FA0CFCDCBF41EA0C019040BB
:10029000E41AA2BF01EB0451294330BD6FEA040404
:1002A0001F3C1CDA0C340EDC04F11404C4F12002EF
:1002B00020FA04F001FA02F340EA030021FA04F301
:1002C00045EA030130BDC4F10C04C4F1200220FA58
:1002D00002F001FA04F340EA0300294630BD21FA96
:1002E00004F0294630BD94F0000F83F4801306BF5C
:1002F00081F480110134013D4EE77FEA645C18BF50
:100300007FEA655C29D094EA050F08BF90EA020FE6
:1003100005D054EA000C04BF1946104630BD91EADE
:10032000030F1EBF0021002030BD5FEA545C05D1E1
:100330004000494128BF41F0004130BD14F5800420
:100340003CBF01F5801130BD01F0004545F0FE4194
:1003500041F470014FF0000030BD7FEA645C1ABFC9
:10036000194610467FEA655C1CBF0B46024650EA00
:10037000013406BF52EA033591EA030F41F400212C
:1003800030BD00BF90F0000F04BF0021704730B5B2
:100390004FF4806404F132044FF000054FF0000187
:1003A00050E700BF90F0000F04BF0021704730B548
:1003B0004FF4806404F1320410F0004548BF40421D
:1003C0004FF000013EE700BF42004FEAE2014FEA72
:1003D00031014FEA02701FBF12F07F4393F07F4F4D
:1003E00081F06051704732F07F4208BF704793F050
:1003F0007F4F04BF41F40021704730B54FF4607463
:1004000001F0004521F000411CE700BF50EA010265
:1004100008BF704730B54FF000050AE050EA01020E
:1004200008BF704730B511F0004502D5404261EB7E
:1004300041014FF4806404F132045FEA915C3FF4BF
:10044000D8AE4FF003025FEADC0C18BF03325FEA5C
:10045000DC0C18BF033202EBDC02C2F1200300FA0D
:1004600003FC20FA02F001FA03FE40EA0E0021FA32
:1004700002F11444BDE600BF70B54FF0FF0C4CF420
:10048000E06C1CEA11541DBF1CEA135594EA0C0FD2
:1004900095EA0C0F00F0DEF82C4481EA030621EA0D
:1004A0004C5123EA4C5350EA013518BF52EA033548
:1004B00041F4801143F4801338D0A0FB02CE4FF0FA
:1004C0000005E1FB02E506F00042E0FB03E54FF02A
:1004D0000006E1FB03569CF0000F18BF4EF0010E22
:1004E000A4F1FF04B6F5007F64F5407404D25FEA1E
:1004F0004E0E6D4146EB060642EAC62141EA5551D1
:100500004FEAC52040EA5E504FEACE2EB4F1FD0C12
:1005100088BFBCF5E06F1ED8BEF1004F08BF5FEA90
:10052000500E50F1000041EB045170BD06F0004642
:1005300046EA010140EA020081EA0301B4EB5C04EF
:10054000C2BFD4EB0C0541EA045170BD41F48011E7
:100550004FF0000E013C00F3AB8014F1360FDEBF0C
:10056000002001F0004170BDC4F10004203C35DAE8
:100570000C341BDC04F11404C4F1200500FA05F36B
:1005800020FA04F001FA05F240EA020001F000420C
:1005900021F0004110EBD37021FA04F642EB060182
:1005A0005EEA430E08BF20EAD37070BDC4F10C04AC
:1005B000C4F1200500FA04F320FA05F001FA04F270
:1005C00040EA020001F0004110EBD37041F100015C
:1005D0005EEA430E08BF20EAD37070BDC4F1200567
:1005E00000FA05F24EEA020E20FA04F301FA05F2CF
:1005F00043EA020321FA04F001F0004121FA04F277
:1006000020EA020000EBD3705EEA430E08BF20EA46
:10061000D37070BD94F0000F0FD101F00046400080
:1006200041EB010111F4801F08BF013CF7D041EA02
:10063000060195F0000F18BF704703F00046520006
:1006400043EB030313F4801F08BF013DF7D043EAD7
:100650000603704794EA0C0F0CEA135518BF95EA8D
:100660000C0F0CD050EA410618BF52EA4306D1D114
:1006700081EA030101F000414FF0000070BD50EA33
:10068000410606BF1046194652EA430619D094EABD
:100690000C0F02D150EA013613D195EA0C0F05D1A7
:1006A00052EA03361CBF104619460AD181EA0301FB
:1006B00001F0004141F0FE4141F470014FF00000B3
:1006C00070BD41F0FE4141F4780170BD70B54FF04E
:1006D000FF0C4CF4E06C1CEA11541DBF1CEA1355CE
:1006E00094EA0C0F95EA0C0F00F0A7F8A4EB0504B0
:1006F00081EA030E52EA03354FEA013100F08880A7
:100700004FEA03334FF0805545EA131343EA12636F
:100710004FEA022245EA111545EA10654FEA002624
:100720000EF000419D4208BF964244F1FD0404F5DD
:10073000407402D25B084FEA3202B61A65EB030539
:100740005B084FEA32024FF480104FF4002CB6EBF6
:10075000020E75EB030E22BFB61A754640EA0C0076
:100760005B084FEA3202B6EB020E75EB030E22BFB6
:10077000B61A754640EA5C005B084FEA3202B6EBF7
:10078000020E75EB030E22BFB61A754640EA9C00B6
:100790005B084FEA3202B6EB020E75EB030E22BF86
:1007A000B61A754640EADC0055EA060E18D04FEA44
:1007B000051545EA16754FEA06164FEAC30343EAE4
:1007C00052734FEAC2025FEA1C1CC0D111F4801FB1
:1007D0000BD141EA00014FF000004FF0004CB6E7AA
:1007E00011F4801F04BF01430020B4F1FD0C88BF49
:1007F000BCF5E06F3FF6AFAEB5EB030C04BFB6EB54
:10080000020C5FEA500C50F1000041EB045170BD46
:100810000EF0004E4EEA113114EB5C04C2BFD4EB73
:100820000C0541EA045170BD41F480114FF0000EF7
:10083000013C90E645EA060E8DE60CEA135594EA73
:100840000C0F08BF95EA0C0F3FF43BAF94EA0C0F76
:100850000AD150EA01347FF434AF95EA0C0F7FF4EB
:1008600025AF104619462CE795EA0C0F06D152EA3F
:1008700003353FF4FDAE1046194622E750EA410623
:1008800018BF52EA43067FF4C5AE50EA41047FF434
:100890000DAF52EA43057FF4EBAE12E74FF0FF3C99
:1008A00006E000BF4FF0010C02E000BF4FF0010C6A
:1008B0004DF804CD4FEA410C7FEA6C5C4FEA430CE3
:1008C00018BF7FEA6C5C1BD001B050EA410C0CBF32
:1008D00052EA430C91EA030F02BF90EA020F002094
:1008E000704710F1000F91EA030F58BF994208BFFB
:1008F00090422CBFD8176FEAE37040F001007047B8
:100900004FEA410C7FEA6C5C02D150EA013C07D10E
:100910004FEA430C7FEA6C5CD6D152EA033CD3D059
:100920005DF8040B704700BF8446104662468C4653
:100930001946634600E000BF01B5FFF7B7FF002886
:1009400048BF10F1000F01BD4DF808EDFFF7F4FFAF
:100950000CBF012000205DF808FB00BF4DF808ED3A
:10096000FFF7EAFF34BF012000205DF808FB00BF5D
:100970004DF808EDFFF7E0FF94BF012000205DF87F
:1009800008FB00BF4DF808EDFFF7CEFF94BF012034
:1009900000205DF808FB00BF4DF808EDFFF7C4FF2D
:1009A00034BF012000205DF808FB00BF4FEA410280
:1009B00012F5001215D211D56FF47873B3EB6252B1
:1009C00012D94FEAC12343F0004343EA505311F0D8
:1009D000004F23FA02F018BF404270474FF000006A
:1009E000704750EA013005D111F0004008BF6FF0A8
:1009F000004070474FF00000704700BF7BB972B9EC
:100A00000029BEBF00204FF0004106E008BF0028CB
:100A10001CBF6FF000414FF0FF3000F057B8ADF150
:100A2000080C6DE904CE002909DB002B1ADB16F057
:100A3000C9F8DDF804E0DDE9022304B07047404264
:100A400061EB4101002B1BDB16F0BCF8DDF804E084
:100A5000DDE9022304B0404261EB4101524263EB05
:100A600043037047524263EB430316F0ABF8DDF8E3
:100A700004E0DDE9022304B0404261EB410170472C
:100A8000524263EB430316F09DF8DDF804E0DDE924
:100A9000022304B0524263EB4303704753B94AB98F
:100AA000002908BF00281CBF4FF0FF314FF0FF3076
:100AB00000F00CB8ADF1080C6DE904CE16F082F828
:100AC000DDF804E0DDE9022304B07047704700BFA1
:100AD0002DE9F00791E8F807B2E802105B1854EB33
:100AE0000C04B2E802104D4156EB0C06B2E80210BD
:100AF0004F4158EB0C08B2E8021059EB01095AEBD0
:100B00000C0A80E8F80780410130BDE8F007704723
:100B10002DE9F00791E8F807B2E802105B1A74EBD0
:100B20000C04B2E802108D4176EB0C06B2E802101C
:100B30008F4178EB0C08B2E8021079EB01097AEBEF
:100B40000C0A80E8F80780414042BDE8F007704792
:100B50002DE9F007524290E87800B1E8800717408D
:100B6000DB1918EA020854EB080419EA020955EBEC
:100B700009051AEA020A56EB0A0678C090E87800DE
:100B8000B1E8800717407B4118EA020854EB0804DB
:100B900019EA020955EB09051AEA020A56EB0A0698
:100BA00078C080410130BDE8F00770472DE9F007BB
:100BB000524290E87800B1E880071740DB1B18EA42
:100BC000020874EB080419EA020975EB09051AEA30
:100BD000020A76EB0A0678C090E87800B1E8800750
:100BE0001740BB4118EA020874EB080419EA02092D
:100BF00075EB09051AEA020A76EB0A0678C080410D
:100C00004042BDE8F00770472DE9F00152424FF035
:100C1000040890E8300091E8C000A31B1340E41AD8
:100C2000F618EB1B1340ED1AFF1830C0C0C1B8F125
:100C30000108EED1BDE8F001704700BF00B592E8B1
:100C4000DC072DE9DC07B1E8805702B4A7FB0251AD
:100C50000A95A8FB020BE7FB6310E9FB62B00B915E
:100C6000A8FB0351EAFB6201E7FB64B5E7FB6605FD
:100C7000E8FB6615CDF830B0A9FB03B6EAFB6316B6
:100C8000ECFB6356E8FB640BE9FB641BEAFB645B6B
:100C9000ECFB646B0D90ACFB0230059CEEFB6250EC
:100CA000E9FB6460EAFB64B0E7FB6431E8FB645194
:100CB000069CE8FB6461E9FB64B1EAFB64010E9306
:100CC000A7FB0432079CE7FB6462E8FB64B2E9FB24
:100CD0006402EAFB6412049CE9FB6453EAFB64636C
:100CE000089CE7FB64B3E8FB6403E9FB6413EAFBDD
:100CF00064230F955DF8049B99E80006DDF80080F9
:100D0000A9FB0854EAFB68B4DDF81080ECFB68042A
:100D1000EEFB6814E9FB6824EAFB6834DDF8048024
:100D2000EEFB6865E9FB68B5EAFB6805DDF8148051
:100D3000ECFB6815EEFB6825E9FB6835EAFB6845C6
:100D40000F96DDF80880AEFB0876E9FB6806EAFB43
:100D50006816DDF81880ECFB6826EEFB6836E9FBC8
:100D60006846EAFB6856DDF80C80ECFB68B7EEFBE2
:100D70006807E9FB6817EAFB6827DDF81C80ECFBD5
:100D80006837EEFB6847E9FB6857EAFB686708B01D
:100D900000BD00BF2DE9F14F87B0FFF74FFFDDF831
:100DA0001C8008F1200888E8FF00FFBC87E87F0866
:100DB000BDE8F08F00B591E89857A3FB0352019569
:100DC000A3FB0401E3FB6420E3FB67100292A3FB97
:100DD0000752E3FB6802E4FB6415E3FB6805E3FBF1
:100DE00069250391A4FB07B6E3FB6926E3FB6A567A
:100DF000E4FB670BE4FB682BE3FB6A5BE3FB6C6BD8
:100E00000490A4FB0810E4FB6950E3FB6C60E3FB77
:100E10006EB0E7FB6721E4FB6951E4FB6A61E3FB29
:100E20006EB1E4FB6E010592A7FB0832E4FB6A6237
:100E3000E4FB6CB2E4FB6E02E7FB6E12E7FB685367
:100E4000E7FB6963E4FB6CB3E7FB6C03E7FB6E1342
:100E5000E8FB6E230695A7FB0954E7FB6AB4E7FBA2
:100E60006C04E8FB6C14E8FB6E24E9FB6E34E8FBD1
:100E70006865E7FB6AB5E8FB6A05E8FB6C15E9FB0A
:100E80006C25E9FB6E35EAFB6E450796A8FB0976F3
:100E9000E8FB6A06E9FB6A16E9FB6C26EAFB6C369E
:100EA000EAFB6E46ECFB6E56E8FB69B7E9FB6907A7
:100EB000E9FB6A17EAFB6A27EAFB6C37ECFB6C4735
:100EC000ECFB6E57EEFB6E6700BD00BF2DE9F14FE6
:100ED00087B0FFF76FFFDDF81C8008F1200888E875
:100EE000FF00FFBC87E87F08BDE8F08F30B44FF00B
:100EF000000310F8014B11F8015B013A84EA050484
:100F000043EA0403F5D1A3F101034FEAD37030BCE7
:100F1000704700BF4FF0000310F8012B013943EA7E
:100F20000203F9D1A3F101034FEAD370704700BF68
:100F300030B411F8014B12F8015B6C4000F8014B22
:100F4000013BF6D130BC70472DE9F00791E8F80776
:100F5000B2E802105B1854EB0C04B2E802104D41E9
:100F600056EB0C06B2E802104F4158EB0C08B2E801
:100F7000021059EB01095AEB0C0A8941B3F1FF3316
:100F800074F1FF3475F1FF3576F1000677F1000753
:100F900078F1000879F101097AF1FF3A51F1000185
:100FA0005B184C414D4156F1000657F1000758F1CE
:100FB000000859EBD1795AEB010A80E8F807BDE83F
:100FC000F00770472DE9F00791E8F807B2E8021042
:100FD0005B1A74EB0C04B2E802108D4176EB0C0640
:100FE000B2E802108F4178EB0C08B2E8021079EBFE
:100FF00001097AEB0C0A89415B184C414D4156F1CD
:10100000000657F1000758F1000859EBD1795AEB67
:10101000010A80E8F807BDE8F007704718EB0408FC
:1010200059EB05095AEB060A5BEB070B5FF0000C66
:101030004CF1000C18EB050859EB06095AEB070AAE
:101040005BEB070B50EB0C005FF0000C51EB0C015D
:1010500052EB0C0263414CF1000CB8EB070879F13C
:1010600000097AF1000A7BEB040BA841B141A241CF
:10107000B3416CF1000CBBEB050BB041B941AA4187
:10108000BB416CF1000C4CF001068CF0020718EB30
:10109000060859EB6C095AEB6C0A7BEB6C0B70EB96
:1010A0006C0471EB6C0572EB670653EB6C076CEB31
:1010B0006C0C18EB0C0059EB0C015AEB0C025BF1B9
:1010C000000354F1000455F1000556EBDC7657EBB4
:1010D0000C0770472DE9F14F87B0FFF7AFFDDDF842
:1010E0001080DDF81490DDF818A0FFF797FFBDE839
:1010F000000FFFF793FF03B05DF8048B88E8FF0053
:10110000BDE8F08F2DE9F14F87B0FFF753FEDDF812
:101110001080DDF81490DDF818A0FFF77FFFBDE820
:10112000000FFFF77BFF03B05DF8048B88E8FF003A
:10113000BDE8F08F3EB5164C207A8DF80100E079BD
:101140008DF80000A079ADF804006079ADF80200D8
:1011500068460EF015FD08B1B32114E00D48006893
:10116000029002A819F0FEFE08B1B7210BE0A07CA6
:101170000EF04EFD08B1BA2105E0607C0EF042FD94
:10118000002803D0BB21032000F0A0FA3EBD0000E0
:10119000AC350020F81700003EB504460068C01DBD
:1011A00020F0070020600020009001900290087855
:1011B0008DF8010048788DF8020088788DF80300DA
:1011C000C8788DF8040008798DF80500C87B8DF883
:1011D0000600487D8DF80800887D8DF80900C87DDF
:1011E0008DF80A00087E8DF80B000848407910B190
:1011F00008798DF807000AB1002000E020686946F0
:1012000000F026FF2168084420603EBD2000002039
:101210002DE9F8430446887816460D4688B12068C3
:10122000C01C20F003002060E97BEA786B89114440
:10123000CAB2A97806B1002001F09CFA21680844DE
:101240002060814FF87898B1687A88B1387908B110
:10125000FF2200E025222068C01C20F0030020604F
:10126000697A06B1002001F019FB2168084420606A
:10127000287B90B1A87818B9F87870B1687A60B115
:101280002068C01D20F007002060297B06B10020E7
:1012900004F06CFA2168084420606C48036873B15C
:1012A000287960B12068C01C20F0030020606A7BB0
:1012B000297906B1002098472168084420606448D5
:1012C00002686AB1A87B58B12068C01C20F00300F6
:1012D0002060A97B06B10020904721680844206067
:1012E0005C48D0F800C0BCF1000F11D0E87B78B1A9
:1012F0002068C01C20F003002060A97C00916B7C5A
:101300002A7CE97B06B10020E04721680844206080
:101310007879B94678B1287968B12068C01C20F086
:10132000030020602A7D297906B1002001F0DCFA53
:10133000216808442060687E80B12068C01D20F0CC
:1013400007002060697E804606B100204FF4877256
:1013500016F0EFFA21680844206001E04FF0000821
:10136000A87E78B12068C01D20F007002060A97E0B
:10137000074606B10020FB2216F0DBFA216808447C
:10138000206000E0002726B9FB223946404611F0D4
:1013900077FAE87E68B3287F58B32068C01D20F034
:1013A00007002060E97E06B100204FF4827216F03B
:1013B000C0FA2768334638442060C01C20F0030080
:1013C00095F81CC040F004022260A87D297E0844E4
:1013D000C1B2604601F0BAFA21680844206066B9DB
:1013E000384611F06DFAE87E4FF4807111F080FA02
:1013F00003E016B9002011F063FAD9F80C1031B1EE
:1014000016B92168C9F80C10206828302060687F60
:10141000002817D0206842F21077C01D20F0070086
:101420002060697F06B100203A4616F082FA014634
:101430002068002E0144216004D13946BDE8F843FC
:1014400011F08ABABDE8F8832000002030000020A7
:10145000380000203400002010B528B114220449BF
:101460001BF091FA002010BD6FF0150010BD0000B8
:10147000181800002DE9F0416FF02C06002871D1FA
:10148000534C607810B1B011BDE8F081002917D03D
:101490006FF01500002AF7D04E4B17299D7861D2C6
:1014A000DFE801F0900C0F12224A52692855586467
:1014B0002D323F456E71808376797C0010781870EC
:1014C00075E01078587072E091780029DCD0D178FE
:1014D0000029D9D011781B29D6D351781B29D3D311
:1014E0001068C3F8050062E01178DA789142CBD336
:1014F00099705CE01178A942C6D8D97057E011788C
:10150000A942C1D8D97352E011780029BCD05178D2
:10151000F929B9D80029B7D0108818829078987422
:1015200045E01078D87410780FF072F93FE0117828
:101530000029A9D019753AE0E17811B11178022992
:10154000A2D31078587232E0108858812FE01078BA
:1015500018712CE061790029117804D0002993D00A
:10156000597324E02EE002298ED3F9E71178082977
:101570008AD899731BE01188FF2985D8197316E062
:101580001078587513E011780E29B5D899750EE0CA
:10159000107858760BE01078987608E01088A3F859
:1015A0001B0004E01078D87501E01078187601224D
:1015B0000849002015F056FCB0F5803F04DB6FF0C1
:1015C0000B0061E730465FE70121A1705CE7000096
:1015D00020000020AC35002010B5064C607820B10A
:1015E0000EF0F6FE207815F09FF901F003FA0020C6
:1015F000607010BD2000002070B50C46050002D0C0
:101600000CB1600702D06FF0150070BD00F01AF940
:10161000A8B1284615F04EF90A4D00220A49287053
:10162000204615F01FFC1AF015FE2878E9680EF028
:10163000ABFEFFF77FFD01206870002070BD4FF00A
:10164000FF3070BD20000020AC35002030B589B0DF
:1016500005000CD015F0D6F84FF0FF3420B114F08F
:101660005BFAB0F5FA7F05D9204609B030BD6FF0BE
:101670001500FAE7114C1248A56000F0BFFB0020EE
:101680006070A070E0702071E060607101461E2201
:1016900068461BF0F2F91E220A4968461BF073F9EE
:1016A0001E22694608481BF06EF9EFF3108472B6EB
:1016B00001F0AEF904B962B60020D6E720000020A0
:1016C00035110000FA170000AC3500200EB572B6D7
:1016D000154A9568DDB1002203466E460A2403E0F0
:1016E000B0FBF4F0521CD2B20028F9D1B0540AE099
:1016F000D8B2B0FBF4F7B3FBF4F304FB1700521EAF
:10170000D2B23030B054002AF2D13046A847BFF3ED
:101710004F8F06480168064A01F4E06111430160F9
:10172000BFF34F8F00BFFDE7200000200CED00E06D
:101730000400FA05064810B581784078014302D0CC
:101740004FF0FF3010BD0EF08DFB002010BD0000EB
:1017500020000020064810B581784078014302D06F
:101760004FF0FF3010BD0EF045FE002010BD000010
:1017700020000020074810B581784278114302D03C
:101780004FF0FF3010BD0121C17001710EF044FE19
:10179000002010BD20000020064810B58178407858
:1017A000014302D04FF0FF3010BD19F0E0FD0020E2
:1017B00010BD000020000020064810B58178407858
:1017C000014302D04FF0FF3010BD0EF037FE002075
:1017D00010BD000020000020064810B58178407838
:1017E000014302D04FF0FF3010BD19F008FE002079
:1017F00010BD000020000020010001010100001BBD
:101800001B0302031F000802000001490000010041
:101810000000000000000000D01EB29D381C6AFBD2
:101820000A0C662062AF4EA0B9990B4B014A526870
:101830001047000058330020014A9268104700000A
:10184000583300200448416819B1806808B101206C
:1018500070470020704700005833002002490DC82F
:1018600081E80D0000207047583300207CB52C4DD6
:101870000646001D28602A4802F03EFF0446022862
:1018800004D0042C07D0082C44D047E0244930462B
:1018900015F069FB42E02878092802D0252816D1E6
:1018A00010E005213E2015F034FB80B9B5F80300A7
:1018B000ADF8000001A9684615F0A5FC0028DAD0B3
:1018C00053210CE01A213E2015F023FB50B114499E
:1018D000304600F02BF8B0F5817F12D3722108203A
:1018E000FFF7F4FE0F4801A900680090B5F8050065
:1018F000ADF80000684615F0A6FC0028BBD06521B5
:10190000EDE70028B7D0B178307815F002FB002859
:10191000B1D003E00249304615F053FB20467CBDB0
:101920006433002028190000000011002DE9F84F51
:101930000C46054691F800C00D22042103233E26E3
:101940000520FF274FF00C094FF0080B4FF0070E52
:101950004FF0010ABCF1330F77D2DFE80CF07629A3
:101960002E33BF76777B8085888A8EB6BB1A763613
:10197000763B92B0FDFCFB76FA76F9F8F7F676F551
:10198000F4F3F2F1F0EFEEEDECEBEAEAE9E8E7E68A
:10199000E5000E202070B4F803008338B0F5005F36
:1019A00003D03121C720FFF791FE06206070BBE114
:1019B00084F8009084F801B0B6E11A20207084F811
:1019C00001A0B1E126700220ADE126701220607006
:1019D0000B20A8E1292000F0D1F920B126702220A7
:1019E000607029209FE10A2000F0C8F920B121464B
:1019F000284615F01DFB53E12E7085F802A0E07813
:101A0000E87020792871A088000A6871A079A8710F
:101A1000E07900F00100E871A068A860A089A881C1
:101A2000A07EA873608B000AE873207F2874A08BC7
:101A3000000A6874A07FA874E08B000AE87494F828
:101A400020002875132068702BE182E126706170F8
:101A5000142068E1267084F80190A17064E126707A
:101A60000A206070A3705FE1267062705BE12070F5
:101A700001E084F800B0617056E13020207063709E
:101A800052E12E7085F802E0A078E8706088000AC4
:101A9000287120796871A088000AA871A079E8717E
:101AA000E088000A2872207A68722089000AA872E9
:101AB000A07AE8726089000A28730B20F1E0267092
:101AC0000620607084F802902EE1A11C284615F0D3
:101AD000E3FAE5E057202070022067E72E70AA7035
:101AE000E278EA70B4F80D20AA802279AA71D4F8BD
:101AF0000520C5F80720B4F80920A5F80B20E27BE3
:101B000028466A73E11C227C82738A7BC2738A7EB8
:101B100002744A7A4274B1F81120ADF80020428272
:101B2000CA7C02754A6918E0FAE007E1F0E0EAE0F1
:101B3000F2E0C4E0D2E0C9E0DCE0D3E0C1E0DDE007
:101B4000B8E0B2E083E07EE070E06AE065E060E08B
:101B500036E024E014E01DE017E0C0F815200A8B01
:101B6000A0F819200A7AC2760E7AE52E00D3E5266F
:101B700032461C301C311AF006FF1A36F0B28FE0E4
:101B8000267084F801A01120CDE026700620607038
:101B90001220C8E02670092060701320C3E02E7068
:101BA000242000F0EBF808B1242049E00E20A870B2
:101BB0000F263246A11CE81C1AF0E5FE701C6FE0EF
:101BC0002E70252000F0DAF840B12520A8700A26F2
:101BD0003246A11CE81C1AF0D6FE0FE00F20A870B8
:101BE0006188A5F80310217969716179A971A179DA
:101BF000E971A17A2972E17A69720726A819E27A55
:101C000004F10C01C01C1AF0BEFEE07A761C3044D0
:101C100046E026706370102085E0267060702020FA
:101C200081E026700920607021207CE02E70262043
:101C300000F0A4F818B12620A8701726B9E71820DC
:101C4000A8701326B5E72670617027206BE02E7010
:101C50002820A870D4F80210002605F10308C5F862
:101C60000310304615E000BF08EB0600A119071D60
:101C700051F8060F38608888B8807A79B81D891DB8
:101C80001AF081FE7879B61D304486B209F1010060
:101C9000C0B298F8031081464945E5D8761DB0B228
:101CA00080B36870801C86B245E026701D2060708D
:101CB000192038E0267084F801E01A2033E02670FD
:101CC00032E026701420607022202CE02670217CE7
:101CD0000F2000EB410060701D2024E0267063702F
:101CE0001E2020E02670207D132101EB4000607053
:101CF0001B2018E0267063701C2014E026706070B2
:101D00001F2010E010E027700B206070A2200AE076
:101D100027706070A32006E027706070A42002E0A6
:101D2000277062708020A07066782146B61C32460B
:101D300028461AF028FE3046BDE8F88F2F70812023
:101D4000A870E81CD4F8031028221AF01CFE2920E1
:101D5000A7E740F2872125E6402803D2401EC1B202
:101D6000054805E0FF2805D04038C1B202480830D8
:101D700015F0C1B9012070473C000020401EC1B2DF
:101D8000014815F0B8B900004C0000200249026873
:101D90000A614068486170473C00002005490268BC
:101DA0000A60406842F48C220A60034A104348608B
:101DB000704700003C000020F807400207484FF041
:101DC000FF3100220160C90C416000F108011F20B1
:101DD0000A604A600831C1E9000270473C000020F7
:101DE00010B5FFF7EBFF19F043FA0446024800680C
:101DF00000B18047204610BD540000200149086012
:101E000070470000540000202DE9F04104464FF0D7
:101E10008050D0F8A0701F4D1E4E103D10220021A2
:101E200020461AF02AFE1022002104F110001AF0B8
:101E300024FE2868401C08D16868401C05D1A868A9
:101E4000401C02D1E868401C07D028686A68A9686D
:101E5000EB6820616261A161E361002000F040FF56
:101E60008743F80713D13068401C08D17068401CC4
:101E700005D1B068401C02D1F068401C07D0326820
:101E80007068B168F36822606060A160E360002060
:101E9000BDE8F0819000001038B54FF08051044645
:101EA0002248D1F8A010214D0268143D521C04D1E3
:101EB0004268D2431204120C35D0C90733D00168EE
:101EC0004068ADF80000C4F80110BDF80000A4F8A7
:101ED0000500A07940F0C000A0712868401C0CD01B
:101EE0006868401C09D0A868401C06D0E868401CFF
:101EF00003D0002000F0F4FE40B110220021E01DCC
:101F00001AF0BBFD01202070002038BD2A686968E6
:101F1000A868EB68C4F80720C4F80B10C4F80F00D9
:101F2000C4F81330EEE70020EDE70000A400001035
:101F300002210180418000210171D02141714BF2C9
:101F40001E21C18001498160002070479D381C6AB4
:101F50002DE9F041114D0A2255F82230CBB11E79FE
:101F6000FF2E12D00021501E12D455F8204024B16B
:101F70002779B74201D1A4782144401EF5D5FF2925
:101F800006D9FA211720FFF7A1FB0020187100E005
:101F90001971521EE0D5BDE8F081000068340020C0
:101FA000034951F82000002800D0807870470000D5
:101FB0006834002070B50546194850F8214064B3D4
:101FC000B5F5706F04D340F27E211720FFF77EFB3A
:101FD0002946204615F008FC0146FF2804D020467B
:101FE000BDE8704015F027BCA078B5FBF0F100FB10
:101FF0001150C6B232464FF6F071204615F008FC7B
:102000000246FF2809D0B24201D00020E0702946E4
:102010002046BDE8704015F0E1BB002070BD000017
:10202000683400200246094810B550F82140114696
:10203000204615F0D9FB0146FF2804D02046BDE814
:10204000104015F0F8BB002010BD000068340020DF
:102050002DE9FF410C460646897860780144FF2946
:1020600002D940F25B1104E02178814204D940F2A8
:102070005F111720FFF72AFB03961EB10025584F6A
:1020800015B108E00125FAE73878022803D0214687
:102090000020FFF7DDFF0DB1002000E003A800F0F5
:1020A00039F9504D6378D5E90002A968009063F3CF
:1020B0001F62CDE901216946002000F055F9D5E9FC
:1020C0000302A3786969009063F31F62CDE90121DF
:1020D0006946012000F048F9D5E90602E378296A4B
:1020E000009063F31F62CDE901216946022000F0F0
:1020F0003BF9D5E909022379E96A009063F31F628D
:10210000CDE901216946032000F02EF9D5E90C0242
:102110006379A96B009063F31F62CDE901216946E1
:10212000042000F021F9D5E90F10A3796A6C63F35C
:102130001F60CDE900100292A07918B10EF05EFB8D
:10214000ADF804006946052000F00EF9E379D5E901
:102150001301AA6C63F31F600092CDE90101694687
:10216000062000F001F9237AD5E916016A6D63F3C0
:102170001F600092CDE901016946072000F0F4F8E4
:10218000D5E91810637AAA6E63F31F60CDE90010D9
:1021900002926946082000F0E7F8D5E91B10A37AFF
:1021A0006A6F63F31F60CDE900100292694609204F
:1021B00000F0DAF8D5E91E10E37AD5F8802063F351
:1021C0001F60CDE90010029269460A2000F0CCF8A9
:1021D00000F00AF8786804B0801BBDE8F0810000C8
:1021E000580000203824000010B50E4C207801283B
:1021F00013D0032802D04FF4A37105E0D4E9010104
:10220000814204D040F249111720FFF75FFAFFF72F
:102210009FFE04202070002010BD02202070606806
:1022200010BD00005800002010B5044680790E490A
:1022300051F82000A8B14FF6F073E179827891420D
:102240000FD24A1CE27100EB410252899A42F4D04B
:1022500000EB41025289A28015F0EDFA20600020C7
:1022600010BD052010BD0000683400202DE9F041AC
:1022700007464FF6FF703880124850F82140ECB105
:10228000A5782079B0FBF5F105FB110632464FF633
:10229000F071204615F0BCFA0246FF280ED0A81BAC
:1022A0001044B0FBF5F105FB11002179084481B21F
:1022B00039802046BDE8F04115F090BA0020BDE815
:1022C000F0810000683400202DE9F04107461048F5
:1022D00050F821503946284615F086FA0446FF2862
:1022E00012D0D5F8060021464FEA3046284615F0B0
:1022F000A2FA01463846B04705EB44014FF6F070AC
:1023000048810020BDE8F08143F20200FAE70000B6
:102310006834002010B5124AD8B11178022902D0D1
:102320004FF4837106E00321117001684B0704D05C
:1023300040F20B111720FFF7C9F953685160194497
:10234000916001602C22BDE81040002105481AF080
:1023500094BB0120107000209060506010BD000000
:1023600058000020683400202DE9F041304D2E78CF
:10237000012E04D0032E02D04FF4907136E08A79FA
:10238000082A02D94FF4917130E0CB79002B4DD05F
:102390005F006B680A37FC18022A01D9134601E076
:1023A0004FF002031C44A4F1010401D9134601E0DB
:1023B0004FF00203A3F1010324EA03048B881344C2
:1023C000A2F10102A3F1010323EA02034FF6FF7217
:1023D000934202D340F22D1108E0032E22D1154E74
:1023E000E21B56F8207027B14FF499711720FFF7C0
:1023F0006DF946F820201380C87990700120D070C4
:10240000087A107108684FF6F076000CD0800888C2
:102410001081002003E002EB4007401C7E81CF7951
:102420008742F8D8C87900FB03406860BDE8F081B6
:102430005800002068340020F59F01006003080068
:1024400000000000E99A0100F0030800000000000D
:10245000C790010050010800FF00000099C0010072
:1024600090000800FF0000001D080100A8000800FF
:1024700001000000EFC1010000000800FF000000A3
:1024800001C2010080000800FF000000B9A20100A5
:102490007800080002000000F1A00100F00108002F
:1024A000000000000FA3010020010800FF00000051
:1024B0008FA3010000010800000000002DE9FF4F7C
:1024C000244C064681B020689A46934658B1017A5A
:1024D000B14203D9406850F8260040B143F20200EF
:1024E00005B0BDE8F08FA5211820FFF7EFF81946D9
:1024F000029815F0DBF9804658460E9915F0CCF994
:10250000054608EB0500001D87B22068A146394644
:10251000006815F0FEF804001AD06780258029466F
:10252000201D0E9D07465A460923009515F067F8B1
:102530002088414638440A23029ACDF800A015F0BD
:102540005EF8D9F80000406840F826400020C7E750
:102550000420C5E76400002070B5144C23688BB1DB
:10256000197A814212D95A6852F8201071B10025A7
:1025700042F820504A88186815F023F92168002095
:102580000A7A0CE0C6211820FFF7A0F843F20200F7
:1025900070BD4B6853F8203033B9401CC0B2824242
:1025A000F7D8086815F002F9002070BD640000201B
:1025B0002DE9F0410D46040090464FF0000606D08C
:1025C0000027A00705D086211820FFF77FF80127F4
:1025D000F7E7CDB11146002015F0CCF80C3000EB38
:1025E00085068FB90A4F04F10C00AA003C602572E1
:1025F000606000EB85002060002160681AF03DFA01
:102600004146386815F0B6F83046BDE8F081000064
:102610006400002070B5084D286800280AD0002406
:1026200004E02046FFF798FF641CE4B22868007AB3
:10263000A042F6D870BD000064000020094910B522
:1026400002460968002049B10B7A934205D94968CE
:1026500051F82210002900D0081D10BDEC211820CF
:10266000FFF734F8640000200A4910B502460968F3
:10267000002059B10B7A934207D9496851F82210CA
:10268000002902D031F8040B084410BDFA211820AB
:10269000FFF71CF864000020FEB506464418C81871
:1026A00000210DE05EB1009101910291E5180095C5
:1026B0002560019F67609DF8087027722C461844BA
:1026C000521E1204120CEDD1002E11D00091019176
:1026D000029108490A6800924A680192097A8DF8C5
:1026E000081000992160019961609DF8081021721D
:1026F000FEBD00008ECB01002DE9F0411C4E456867
:1027000004460022A1B10120607070888308002077
:1027100004EB400104EB80060A830B8400FB0351A9
:1027200071602118401C0A750428F1D3BDE8F081BE
:102730006270002004EB40010A830A8404EB8001EC
:102740004A602118401C0A750428F3D3708815F0DC
:1027500080F90746708815F083F965602084291890
:10276000A1606784E560A0842161E784DEE7000062
:10277000680000202DE9F04768B100261144DFF819
:102780009C80CFB2002488F80070810705D04E21CC
:102790000920FEF79BFF0126F0E71F2B04D84FF618
:1027A000FF7101EA830509E05900FF2B0CD903F101
:1027B000FF02B2EB430F00D211468DB24FF6FC710F
:1027C000ED1C0D4036B109E07C22B2EB430FF4D38F
:1027D0007C21F2E7C8F80400A8F8025007EB870153
:1027E00004EBC10200214FF001090FE05EB9D8F8F7
:1027F000044001EB810300EB020C04F8339004EB7E
:10280000C303C3F804C0491C2A44C9B2B942EDD37A
:10281000D21D22F00700BDE8F0870000680000200C
:1028200070B511480024214602780CE0456801EBA0
:10283000810315F8333023B101EB810105EBC104AD
:1028400003E0491CC9B29142F0D344B10025A57000
:1028500001212046FFF750FF2570204670BDA921B9
:102860000920FEF733FF000068000020044810B57F
:102870004088840815F0F4F8844200D3204610BD47
:102880006800002001484078704700007000002078
:102890000148406870470000700000202DE9F843AF
:1028A0000C46074616462E2110460D46224614F0C9
:1028B000EFFE804657B13846414632462B460094DB
:1028C00014F09DFE03484760047046704046BDE822
:1028D000F8830000700000200248427801784068C8
:1028E000FFF7DCBF700000202DE9F8430F460446D7
:1028F0001646F720052114F0CBFE4FF6FC71C01CE4
:1029000000EA0105DCB1A00703D095211920FEF7EC
:10291000DDFE0D4880460460858000240DE0B8F897
:102920000400D8F80010F72204FB00102946052304
:10293000009614F064FE641CA4B2BC42EFD307FB03
:1029400005F0BDE8F8830000780000207FB50E4652
:1029500002991D464A0701D0890703D01F214C2048
:10296000FEF7B4FE01464FF48772002014F0E1FF39
:10297000044606FB04F10DB1002000E002A814F0AB
:10298000F9FE002D03D10349029AC1E9002404B0E5
:1029900070BD000080000020024B0146D3E9000218
:1029A00014F00FBF8000002030B50D4901204860B1
:1029B000821EC1F808230B4988600023C1F8003249
:1029C000C1F80823084C2360251D28608860C1F8E1
:1029D00008232360286006490448086030BD0000D1
:1029E00000E0004000F0004000F500400000F63F2D
:1029F00008F5014010B5FFF7D7FF15F00AF90349B4
:102A00000148086010BD00000000F63F08F50140D5
:102A100010B5FFF7C9FF15F0FCF800F083F8034983
:102A20000148086010BD00000000F63F08F50140B5
:102A30002DE9F84F8246384819F00AFFDFF8D8B080
:102A400028B101260BF10100FF21017000E00026F2
:102A50004FF48075314C4FF000082F1D012161604B
:102A6000C4F80081C4F80481C4F804A52160DFF82B
:102A7000B0901CE0D9F80000C00618D50E2015F063
:102A8000D7F8EFF31080009072B603212046C4F807
:102A90000413294615F0D9F830B93946204615F007
:102AA000D4F808B919F06BFF009800B962B629464E
:102AB000204615F0CAF828B93946204615F0C5F861
:102AC0000028D7D03946204615F0BFF80028C5D1D8
:102AD00006BB9BF801108DF80010009900919DF83D
:102AE000001009B1012500E000250BF1010080F87C
:102AF00000800320C4F80803C4F80481C4F80081EE
:102B00000E2015F095F8044819F0B9FE15B1112002
:102B1000BDE8F88F0020FBE77C04002000E00040C7
:102B200010ED00E010B5064819F0A5FE18B13021EF
:102B30001D20FEF7CBFD02480021417010BD0000B2
:102B40007C04002005498A8E824218BF704700200D
:102B500081F832004FF6FF7088867047CA35002032
:102B60000648074A818E5288914205D190F832007A
:102B700000281CBF0020704701207047CA35002084
:102B80007004002001494880704700007004002054
:102B90000848094A818E5288914209D14FF6FF7147
:102BA000818610F8321F19B1002101700120704791
:102BB00000207047CA35002070040020074901F149
:102BC000320091F83220012A04BF00207047012210
:102BD000027003480088888610467047CA35002076
:102BE000700400200749084B8A8E5B889A4206D100
:102BF00091F83220002A1EBF01600120704700209A
:102C000070470000CA3500207004002009498A8EF0
:102C1000A2F57F43FF3B03D00021016008467047C7
:102C200091F832200349012A1ABF016001200020D7
:102C300070470000CA350020014908807047000035
:102C4000700400200549002081F832004FF6FF7023
:102C5000888603490880488070470000CA350020F4
:102C6000700400200549002081F832004FF6FF7003
:102C7000888603490880488070470000CA350020D4
:102C8000700400200A4A10B1012807D00EE05078E5
:102C900060B1D2F802000860D08804E0107828B152
:102CA00090680860908988800120704700207047F4
:102CB0007E040020094A012340B1012818BF704753
:102CC0001370086890608888908170475370086816
:102CD000C2F802008888D080704700007E0400207F
:102CE000064910B1012803D006E0487810B903E086
:102CF000087808B101207047002070477E0400204A
:102D000001490876704700002A2D0020014880788C
:102D100070470000880000200148C078704700001C
:102D20008800002070B50D460B4906460B4C09483B
:102D30000860207818B1DE212720FEF7C7FC08497B
:102D4000002008760121074815F069FDC4E90B65EC
:102D500070BD0000A43B0000CC00002088000020D3
:102D60002A2D0020F82C00200149012048717047CD
:102D7000880000202DE9F84FFE4DDDF828C02C78A2
:102D8000002C6DD1002A1CBF002BBCF1000F67D0B6
:102D9000C5F81CC0C5E90F014FF00009C5E90523BE
:102DA00085F8059085F8049085F8029085F80190E3
:102DB00085F80390DFF8C083A5F80C90A5F80E9075
:102DC000D8F8040000F1A80604460EF04FFC0DF000
:102DD00013FF94F972000EF0E5FC206A0EF054FF28
:102DE000A0690EF047FF96F833000EF08BFF98F8BD
:102DF0000000002839D0042013F07CFE616941F600
:102E00004C50814228BF962003D201200EF01AFFB9
:102E10004D200EF033FBD8F8040090F8D8020028BB
:102E200018BF0EF01BFB94F86F1001200EF05CF938
:102E3000002808BFBDE8F88FD04800680EF09CFA63
:102E40002088FFF711FC68632088FFF7F7FBA86371
:102E500094F87B008DF800009DF8000080BB1DE019
:102E600040F253112720FEF731FC032013F042FEFD
:102E7000616941F64C50814228BF962003D201205F
:102E80000EF0E0FE4D200EF0F9FA94F86E100020DE
:102E90000EF02AF90028CFD1BDE8F88F606F78B125
:102EA000B6F84A00B18A88420AD1B4F878100122F3
:102EB0000844A6F84A0094F87A00616F12F096FA76
:102EC00006F18800DFF8B8A20FC88AE80F00D6F82C
:102ED0009800CAF81900D6F89C00CAF81D00D8F866
:102EE0000400012700F1A80290F8C51026291EBF92
:102EF000272992F81EC0BCF1260F0BD04FF0080214
:102F00004FF00203212918BF22292DD0BCF1240F34
:102F100051D080E098F80010002990F86E1012D07F
:102F200090F8BE0300287AD0082918BF04296FD072
:102F3000082818BF04286BD0012918BF012856D0D3
:102F40004FF002016BE090F81A03002867D00829BF
:102F500018BF04295CD0082818BF042858D00129BC
:102F600018BF012843D0EBE7BCF1240F23D098F819
:102F70000010E9B390F86E1090F86E0110F0040F95
:102F800018BF10460CD0082918BF042940D00828C3
:102F900018BF04283CD0012918BF012827D0CFE74B
:102FA00010F0010F18BF3846EDD110F0020F18BF16
:102FB0001846E8D133E098F80010C9B190F86E10C7
:102FC00090F86EC190F867000CEA000010F0040F52
:102FD00018BF104610D0082918BF042918D0082897
:102FE00018BF042814D0012918BF0128A8D100E077
:102FF00011E04FF0010112E010F0010F18BF384648
:10300000E9D110F0020F18BF1846E4D107E0FFE73E
:103010004FF0080103E090F86E100429F8D0A08F5B
:1030200011F00C0F18BF4FF4296014F089FF218FA5
:10303000814238BF08464F49887194F86F1004F1F7
:10304000300015F0AFFC94F86F1096F823B0B4F888
:103050004050082938D014F073FF00BFBBF1000FB7
:1030600004BF001D80B2854238BF2846C5B2DFF8D4
:1030700004B18BF8075001F0F1FD10B12B2D98BF72
:103080002B252A468BF8085098F8000000B396F8D4
:103090002300E8B38AF81870D6E92001CAE90401D0
:1030A00094F86F100120012908BF002343D00229A2
:1030B00008BF01233FD0042908BF03233BD00829C0
:1030C00008BF022337D027E0042114F039FFC5E7F9
:1030D00096F8220058B38AF81870D6E91E01CAE99A
:1030E0000401616941F64C5081422CBF002004204C
:1030F00094F86E10012908BF002312D0022908BFDE
:1031000001230ED0042908BF03230AD0082900E0B8
:1031100016E008BF022304D040F2C5310620FEF7B6
:10312000D5FAFB221649CDF800900DF069FC01207C
:1031300000F034FC07E01249CDF800900DF060FC7F
:10314000012000F0CDFB0F480068032818BF0B28B2
:103150001CD0CAF85A90CAF85E90CAF862900A4821
:10316000B18A41802188018096F833100171BDE851
:10317000F88F000088000020C4000020CC00002050
:10318000D02C0020501500402A2D00204FF4027151
:103190004FF02700FEF79AFA2DE9F041204D064640
:1031A0000F461E48696A82B0406891F8018000F1BC
:1031B000A80416F0020F15D0A86A48B36A89D21C79
:1031C00019F0E1FBA86A686201AA6946A86B14F0CD
:1031D00084F9009814F01BF9386001224146A86B6D
:1031E00014F0CCF816F0010F04BF02B0BDE8F08176
:1031F000D4E92002411C42F10000C4E92010207EE5
:1032000001280CBF00200120207602B0BDE8F0812B
:1032100040F25F412720FEF759FA0000C400002069
:10322000880000200248C089C0F380207047000059
:10323000880000200448007800281CBF0C2070473C
:103240000020024908767047880000202A2D0020BF
:1032500038B51A48017800F13C0449B1217800786A
:1032600049B102280ED04FF409712720FEF72EFA3B
:1032700000F096FA0BE0012809D04FF408712720DE
:10328000FEF724FA6068D0F8F0020EF08BF8606860
:1032900090F87B108DF800109DF80010002918BFE1
:1032A00038BD416F002908BF38BD90F87A00BDE8ED
:1032B00038400022114612F099B800008800002022
:1032C000322008700648D0F86620C1F80320D0F8F4
:1032D0006A20C1F80720D0F86E00C1F80B007047D3
:1032E000D02C0020012984BF0120704770B51B4CF1
:1032F0000546A169884700282CD0207950BB04F1ED
:103300003C000178002908BF012D01D021B31DBB6D
:103310001348027812F0100F06D1E06A007810F01E
:10332000100F08BF012001D04FF00000A36A23B99D
:10333000638913B112F0100F0CD000291CBF217B40
:1033400011F0020F03D0216AC978022904D0A189A3
:10335000084301D0012070BD002070BD880000200E
:10336000980000202DE9F34FDFF8108383468BB0DF
:10337000D8F804004FF0000AA8F13C0400F1A807B7
:103380008DF814A0CDF818A020785646D146022812
:1033900004D040F2E2412720FEF798F9A07B10F01C
:1033A000400F07D14020626900219047E08940F03A
:1033B0004000E08197F82300BBF1000F00F0D380BC
:1033C000A0B10DF057FC0DF031FC78B9606A41787E
:1033D00061B10078397EC0F3C000884206D1012077
:1033E000607000F0DDF90DB0BDE8F08F606A4178E3
:1033F0006181002908BFA66203D0A06B14F056F9C2
:10340000A062E08940F48070E081606AF97D007814
:10341000C0F38000884208BF4FF0010A47D0D8F8B7
:10342000040006A900F1A80590F8BE0000283AD0D3
:1034300002280BD1606B13F079FF00284BD0D5E93F
:103440001E01401C41F10001C5E91E01AE7598F84E
:10345000000000281CBFA87C002809D0AE74A289F7
:10346000314642F01002A28162694FF0100090478D
:10347000687C90B16E74FFF78BFB90B3A289082033
:1034800042F00802A281626900219047D5E91E023C
:10349000411C42F10000C5E91E10E87D01280EBF65
:1034A000EE750120E875E08940F48060E081606A93
:1034B000397E0078C0F3C000884222D101F0CEFBF3
:1034C000B8B1616AE0790A7802F00302012A18BFF4
:1034D000022A0BD00DE040F2DD314FF02700FEF75D
:1034E000F5F84FF47D712720FEF7F0F84978814216
:1034F00003D805A800F098F903E0207940F0100007
:10350000207197F8220000283FD098F80010D8F8D2
:10351000040000290CBF0122002259490A76D7E98C
:103520001E23C1E90423416941F64C52914234BF44
:103530004FF0040C4FF0000C90F86E00012808BF0B
:1035400000231CD0022808BF012318D0042808BF7C
:10355000032314D0082808BF022310D040F2C5313D
:103560000620FEF7B3F8002818BF0DF07DFBA07809
:10357000401CA070E08940F40070E081C1E7FB22AC
:103580003F49604600960DF03BFA0C98002520B9A3
:10359000A1780120FFF7A6FE18B10EF059FB012516
:1035A00002E0002000F0FAF99DF81400C0B1616A51
:1035B00048780090A06AD0B16289D21C19F0E3F972
:1035C000A06A606209AA08A9A06B13F086FF089898
:1035D00013F01DFF81460122A06B009913F0CEFE6F
:1035E000B98A2848BAF1000F17D029B10FE040F28C
:1035F0005F412720FEF76AF898F8001039B1B0F85B
:103600000510002904BFB0F80710002905D0B0F854
:10361000091001F10101A0F80910BBF1000F14BF5E
:10362000B0F80510B0F8071001F101011ABFA0F8B9
:103630000510A670A0F80710104801F023FF0698A7
:1036400040B113F0E4FED8F80410401C06720822C2
:1036500001F0A6F9B9F1000F08D0D8F8041009F16B
:10366000080006701022484601F09AF9002D18BF94
:1036700000F096F80DB0BDE8F08F0000C400002007
:10368000D02C00202A2D00202DE9F84F424E8346F1
:10369000A6F13C0570688A4600F1A8042878012844
:1036A00004D040F26E412720FEF710F8207C00275E
:1036B0004FF0010968B12774AA89394642F0040223
:1036C000AA816A69042090473078002818BF84F8DE
:1036D0001290296A4FF00308087838EA00000DD1EB
:1036E000A07DA0B9AA89022042F00202AA816A69DB
:1036F0009047286A007838EA000008D0286A4078A5
:1037000000280EBF84F816900220A07501E084F80E
:10371000168094F8230000282CD031782A7A70681B
:1037200000290CBF0121002181F001031B490B7608
:10373000D4E9203CC1E9043C90F86F004FF0010C43
:10374000012808BF002310D0022808BF01230CD095
:10375000042808BF032308D0082808BF022304D088
:1037600040F2C5310620FDF7B1FF0C4960460097D5
:103770000DF046F93AEA0B0004D000210846FFF7A5
:10378000B1FD18B1BDE8F84F00F00AB8BDE8F84F38
:10379000002000F0A5B80000C4000020D02C0020BC
:1037A00010B50DF02DFB0DF027FA114C00216269C8
:1037B000E08990470F4B187E98B1A3F15A00D0F8DA
:1037C0005A10D0F85E20D0F862C0C0F86610C0F879
:1037D0006A20C0F86EC00222074903F1190001F007
:1037E0003BF9E2692179607890470020207010BD94
:1037F000880000202A2D0020C1320000084810B5A2
:103800000078022804D040F24E212720FDF75EFF09
:1038100004490120C872BDE81040FFF7C1BF000095
:10382000880000202A2D002070B52649264C01264C
:10383000496801F1A805616A0A7802F00302012AC9
:1038400018BF022A0ED0032A23D12E74E2893046F3
:1038500042F40062E281A28942F00102A28162691F
:10386000904716E04978A1B1E28942F40062E28112
:10387000A26A002A08BF70BDFB291DD86179002902
:1038800008BF067005D06269BDE8704020200021A5
:103890001047287E012806BF002028762E76606A11
:1038A0004078002808BF70BDD5E92010491C40F1C0
:1038B0000000C5E9201070BD207940F01000207193
:1038C00070BD0000C400002088000020034800787C
:1038D000002808BF7047FFF763BF00008800002082
:1038E0002DE9F041DFF8AC800746A8F13C04D8F898
:1038F0000450E06A606295F8CB10207A05F1A806C2
:1039000000291CBF001DC0B22249002F496891F850
:103910006F1002BFFF2895F86E20914201D00EF083
:10392000B9F996F82300A8B1206B0DF047FF98F87D
:10393000000000280CBF0120002080F00101164883
:103940000176D6E92012C0E90412216B606A0DF0FD
:10395000F3F804E0606A0DF031FF0DF04DF93FB966
:1039600095F86F0010F00C0018BF28200DF050FDE6
:10397000686941F64C51884295F86E204FF000017D
:1039800034BF012000200EF0F9F802202070BDE8BD
:10399000F0810000C4000020D02C00202DE9F04F61
:1039A000DFF8F4A183B0AAF11C09DAF804504FF053
:1039B00000088DF80080A9F1200495F8CB10227A38
:1039C00005F1A80600291CBF111DCAB272490028C2
:1039D000496891F86E1002BFFF2A95F86F0088427F
:1039E00003D04FF0FF000EF055F9B07DDFF8ACB119
:1039F000012750B1012830D0022841D003284FD0F0
:103A000040F2FF212720FDF761FEA079ADF8040008
:103A1000A5F854004846FFF7E5F8A0B1A289216A4D
:103A200042F08002A2816269802090477774D9F8C1
:103A30000000C0781B283CD14FF0010105F11000B7
:103A40000EF02EFC35E06A4601A9606B13F0ADFD67
:103A5000206210B196F85D1011B1C4F820B028E0D2
:103A60009DF8001031B9A0F8008080F80280012193
:103A700014F0D5FEBDF80410206A14F039FE18E0E9
:103A8000B5F85400ADF804006A4601A9606B13F064
:103A90008CFD206268B940F2E9212720FDF716FE6F
:103AA0004846FFF79FF868B3D9F80000C0781B2894
:103AB000C2D0206A4FF008034FF00309017801F0EB
:103AC000F7010170F27D03EAC20241EA020101F04E
:103AD000FB010170327E4FF0040303EA820241EAE7
:103AE000020101F0EF01017039EA010104BFC07861
:103AF000022815D0606B13F032FD002818BFB846BD
:103B000005D00DE040F2F2212720FDF7DFFD206A0D
:103B1000007839EA000003D0FFF722F880F00108AE
:103B2000206A017841EA0811017096F822100029F4
:103B30001CBF4178002913D0206B0DF03FFE9AF88E
:103B4000000000280CBF0121002115480176D6E9AC
:103B50001E12C0E90412216A206B0CF0EDFF03E095
:103B60000DF02CFE0DF048F8686941F64C51884282
:103B700095F86F204FF0010134BF012000200DF0B7
:103B8000FDFFE770206A018821828078A074277089
:103B900003B0BDE8F08F0000C4000020F82C002026
:103BA000D02C0020FD37000065330000893600006E
:103BB000CD3800000246074810B5007838B10648F5
:103BC000417821B1801C0CF057FE012010BD00206F
:103BD00010BD0000740400200036002004494A781B
:103BE000824286BF084490F84201002070470000DE
:103BF0000036002004494A78824286BF084490F883
:103C00004A010020704700000036002004494A782D
:103C1000824286BF01EB0010823000207047000016
:103C200000360020054A01EB410102EB4101026828
:103C3000C1F80A218088A1F80E01704700360020E3
:103C40002DE9F041134C064600256078002898BF06
:103C5000BDE8F081C0B2A84214D904EB051082304F
:103C600010D0611991F8421161B905EB450104EBDF
:103C7000410707F58571324614F022F8B7F80E01B6
:103C8000A7F80E01681CC5B26078A842E2D8BDE86A
:103C9000F08100000036002004494A78824286BF45
:103CA00001EB0010801C002070470000003600204F
:103CB00008494A78824203D90A1892F842210AB187
:103CC0000020704700EB400001EB400000F58570DC
:103CD000704700000036002010B54FF4C572002177
:103CE000054818F0CAFE05480021017041704FF4E4
:103CF0006171418010BD0000003600207404002076
:103D000070B50C4605460DF03FF80CF0CDFD0A48A5
:103D10002A46007868B1094B597851B1002C0CBF84
:103D200003F18200981C0CF0A7FD0CF0E7FD0120C8
:103D300070BD002070BD000074040020003600201B
:103D40000B4B93F801C084459CBF0020704718447A
:103D500090F80201C0EBC000184490F852310B708B
:103D6000D0F853111160B0F85701908001207047CE
:103D70000036002010B500F083F8082808BF10BDF9
:103D800001460B4A002092F801C0BCF1000F0CD98B
:103D9000131893F802318B4203D1082818BF10BDC5
:103DA00003E0401CC0B28445F2D8082010BD0000DA
:103DB000003600200246064810B500EB0110012134
:103DC00082300CF059FDBDE810400CF097BD0000AA
:103DD000003600200148408870470000740400202D
:103DE00070B5012516462C4600F04AF8082821D067
:103DF000144900234A78002A1CD900BF01EB030CA8
:103E00009CF802C1844518D1082B13D0002E18BF8E
:103E10003370487898420DD901EB031010F1020F6E
:103E200008D0C81890F84A4190F83A0101280CBF10
:103E30000125002545EA040070BD5B1CDBB29A42F7
:103E4000DCD8F7E70036002006494A78824206D9D6
:103E5000084490F83A01002804BF01207047002070
:103E6000704700000036002001484078704700008D
:103E70007404002001494870704700007404002059
:103E80002DE9F00F204B0246002093F80080B8F196
:103E9000000F35D90F784E788D78CC7891F804C022
:103EA00091F805A0C0EBC001194491F8529191F826
:103EB00053B182EA090987EA0B0BD94491F854B14E
:103EC00086EA0B0BD94491F855B185EA0B0BD9441E
:103ED00091F856B184EA0B0BD94491F857B191F897
:103EE00058118CEA0B0BD9448AEA010111EB090F36
:103EF00004BFBDE8F00F7047401CC0B28045D1D868
:103F0000BDE8F00F082070470036002070B5044669
:103F1000002571B1504A012933D002296BD0032901
:103F200018BF70BD04F1CE01BDE87040CD3014F073
:103F3000B3B84FF45872002118F09FFD012284F8A5
:103F4000CD20464AC4F816210722C4F81A2194F855
:103F50001621FE2122F0040284F8162184F84E1165
:103F60007F2184F8C11004F1A8003D49C4F8B010C5
:103F70000022C0F8B050C0E90022202084F80103DC
:103F800070BD60693749B2FBF0F20144B1FBF0F15A
:103F9000C4F8EC1040F6B831A4F8F010E38BA4F8A4
:103FA000F650B4F8FAC0521C0CFB00FCBCFBF0FC51
:103FB000A4F8FAC040F2712C03FB0CF300EB0313DE
:103FC0005B1EB3FBF0F3A4F8F830A4F8FE20264AF9
:103FD00004F1A80100EB0212521EB2FBF0F24A6497
:103FE0000A6C4243B2FBF0F00864BDE87040263131
:103FF000481E14F051B8D4F82813B4F82EC36369DE
:1040000004F1A800A4F8F650B4F8FA40B2FBF1F2BB
:104010005C43B4FBF1F4A0F8524040F271240CFB75
:1040200004FC01EB0C1CACF1010CBCFBF1FCA0F896
:1040300050C0521CA0F85620B0F84820624301EB53
:104040000212521EB2FBF1F24264026C5A43B2FBFE
:10405000F1F1016470BD0000005A62022F4904C4EE
:1040600000E0FCFF7FC3C901389C1C0070B501262D
:104070000446002571B1584A012932D002297BD06B
:10408000032918BF70BD04F1CE01BDE87040CD30EA
:1040900014F002B84FF47C72002118F0EEFC84F8A2
:1040A000CD604E4AC4F816210722C4F81A2194F8AC
:1040B0001621FE2122F0040284F8162184F84E1104
:1040C0007F2184F8C110464904F1A800C4F8B0105B
:1040D0000021C0F8B050C0E90011202084F864032A
:1040E00070BDA4F8F65284F8EB5260693D49B2FB0A
:1040F000F0F20144B1FBF0F1C4F8EC1040F6B83135
:10410000A4F8F010E38BA4F8F650B4F8FAC0521CEF
:104110000CFB00FCBCFBF0FCA4F8FAC040F2712CD4
:1041200003FB0CF300EB03135B1EB3FBF0F3A4F8EB
:10413000F830A4F8FE202C4A04F1A80100EB02128A
:10414000521EB2FBF0F24A640A6C4243B2FBF0F03A
:1041500008642631481E13F09FFF18F0ECFB38B1BD
:10416000A0690BF0A9FB002804BF84F8D86270BDD9
:1041700084F8D85270BDFFE7D4F8C413B4F8CAC3AA
:10418000636904F1A800A4F8F650B4F8FA40B2FB51
:10419000F1F25C43B4FBF1F4A0F8524040F2712418
:1041A0000CFB04FC01EB0C1CACF1010CBCFBF1FCA6
:1041B000A0F850C0521CA0F85620B0F84820624326
:1041C00001EB0212521EB2FBF1F24264026C5A433E
:1041D000B2FBF1F1016470BD005A62022F4904C4C0
:1041E00000E0FCFF7FC3C901389C1C00002A08BF07
:1041F00070471144401E12F0010F03D011F8013D29
:1042000000F8013F520808BF704700BF11F8013C99
:10421000437011F8023D00F8023F521EF6D170477C
:1042200041F64C5291423DBF0549A1FB00104009A7
:1042300040F2E24128BFB0FBF1F080B270470000CD
:104240001F85EB5141F64C5291423DBF0549A1FB00
:104250000010400940F2E24128BFB0FBF1F0C0B2CB
:10426000704700001F85EB51074991F90010084481
:104270001428C4BF1420704710F17F0FB4BF6FF033
:104280007E0040B2704700008C040020024A0021EA
:1042900011705170704700008C04002008B57F2019
:1042A0008DF8000068460DF0DBFC002804BF9DF986
:1042B000000008BD9DF9001007484078404240B218
:1042C00008441428C4BF142008BD10F17F0FB4BFE8
:1042D0006FF07E0040B208BD8C040020014890F9C8
:1042E000010070478C040020014A10705170704723
:1042F0008C040020014890F9000070478C040020D5
:1043000010B517F0B2FF074991F9001008441428BE
:10431000C4BF142010BD10F17F0FB4BF6FF07E003A
:1043200040B210BD8C040020074908B509788DF80B
:1043300000109DF8001000291CBF002008BD034993
:1043400018F028F8012008BD8E0400208F040020FA
:1043500010B508A182B0D1E90001CDE9000169469C
:10436000064CFF202070601C18F014F8002020700C
:1043700002B010BDFFFFFFFF1F0000008E040020F1
:1043800010B5054CFF2121700146601C18F002F8A1
:104390000020207010BD00008E04002070B581EA5E
:1043A00011418BB2C47A83EA0201002201F0FF0CB2
:1043B000090A91FAA1F19CFAACFC090E4FEA1C6CB7
:1043C0004CEA012101EB011C521C0CEB0301D2B29F
:1043D00089B2032AEAD381EA0302DFF888C0002108
:1043E0006346E2FB0C3109096FF0240301FB032152
:1043F000C9B200EBD10301F0070C5D78012303FA89
:104400000CFC15EA0C0F1CBF084670BD04FB02F142
:10441000090C491CC9B24FF0000C00BF00EB0C04A2
:10442000A2798A4227BF00226478891AC9B20AD3C6
:1044300003FA02F52C421CBF491EC9B271B1521CCD
:10444000D2B2082AF4D30CF1010202F0FF0CBCF145
:10445000050FE3D39D214620FDF738F902EBCC0090
:10446000C0B270BD53E4B36E70B5044690F830002E
:1044700008B1252801D9122070BD002A04BF0020F0
:1044800070BD94F8250010B1012851D048E094F88F
:10449000320094F831102B4B01FB020000251A4624
:1044A0002946E0FB032109096FF0240201FB020009
:1044B000C0B204EBD00284F8320000F0070192F899
:1044C0002620012303FA01F10A421EBF84F83300BB
:1044D000284670BD94F83010B0FBF1F201FB1200D9
:1044E000401CC1B25FF0000004EB000C9CF82B20D4
:1044F0008A4227BF00229CF826C0891AC9B20BD372
:1045000003FA02F61CEA060F1CBF491EC9B249B1E4
:10451000521CD2B2082AF3D3401CC0B20528E3D300
:104520001F2070BD02EBC00084F83300284670BD28
:10453000A28A896904F12500FFF730FF84F833006F
:10454000002070BD53E4B36E417841B1C0782B2890
:1045500003D2044A105C884201D101207047002038
:104560007047000097CB010010B50122C1702B29C4
:104570003CBF064A525C06D3FF2904D040F2744186
:104580002A20FDF7A3F8427010BD000097CB010070
:104590000449897D01F0040108430CBF012000207B
:1045A00070470000943400200348807D10F0020F13
:1045B0000CBF012000207047943400200348807D08
:1045C00010F0010F0CBF0120002070479434002030
:1045D00010B5017A81B101291CBF002010BDC2882D
:1045E000036880885FF0010100F00CF8002808BF24
:1045F00000F06CF8012010BDC28803688088022199
:10460000F2E700002DE9F04385B08846994615464B
:10461000064602A913F0E5FB00284CD10398002DB3
:1046200000F1A80404BF012084F8240043D03046E0
:10463000FEF71AF807000CD0294612F063FF0100BC
:1046400003D021484088854207D905B00020BDE845
:10465000F08367212B20FDF739F86A46384612F0BF
:104660004AFF009800260680867094F824100029DE
:1046700018BF4FF00208414614F0D1F800982A46BE
:104680004946C01C18F07FF92946384612F0EFFE63
:10469000A8B19DF8080060B1039890F8EA0228B12B
:1046A000039880F8EA62039815F066F80398A0F87A
:1046B000E26284F8246005B00120BDE8F0837C212B
:1046C0002B20FDF703F8000094340020084882B046
:1046D000007A8DF800009DF8000000281CBF02B091
:1046E0007047022202B00349014800F059B90000A6
:1046F000B0340020898801002DE9F84FDFF854A27A
:10470000954F83464FF00108002578682E46007AC1
:104710008DF80000009800909DF80010102908D135
:104720009AF8170028B1BAF81800002808BFBDE8A9
:10473000F88F28463C6914B3217A8DF8001000994F
:1047400000919DF80020D2B10028F2D1B4B3207AB4
:104750008DF800009DF8009004F10800052101701B
:10476000A9F102000F2880F0E880DFE800F02B3983
:1047700045E67E7093704F4F707070B3D5007C68C3
:10478000227A8DF80020009A00929DF80030012BCB
:1047900008BF0446D8D0EFF3108172B622687A6061
:1047A00001B962B6217A8DF80010009900919DF848
:1047B0000020002A0CBF40463C61C5E7FFE700200F
:1047C000BDE8F88F626832B1594620469047042010
:1047D00060F3070688E04FF4E0711020FCF776FFE5
:1047E000626822B159462046904706467CE040F276
:1047F000C9111020FCF76AFF616811B12046884793
:1048000072E040F2D3111020FCF760FF53480368B8
:10481000002B69D060684A465946009098470420AA
:1048200060F307069BF800001D2805D01A285BD10D
:104830009BF80200002857D0009804210089FDF75A
:1048400043FD18B34FF4F4711020FCF73FFF4448C8
:104850000368B3B360684A4659469847042060F33A
:104860000706B9F10D0F11D03EE0626832B159462A
:104870002046904709F0ECFC28B107E040F20E21F9
:104880001020FCF723FF06F0D3FDD0B104203D61DA
:10489000BDE8F88F6068A8B104882046FDF7E4FE03
:1048A000A0B10D218BF80010ABF80340ABF80580E8
:1048B0008BF80280002112F0CDFE04203D61BDE89E
:1048C000F88F11E0E3211020FCF700FFC521102034
:1048D000FCF7FCFE1E208BF80000D4F80900CBF892
:1048E0000300042060F30706C6F30720012808BF71
:1048F00084F8089027D0EFF3108072B6217A8DF8F3
:1049000000109DF80010052913BF002925723D6194
:1049100065F30706B8B915E01248026822B160686D
:1049200030B100885946904702203D61BDE8F88FBC
:1049300040F23D211020FCF7C9FE40F24721102033
:10494000FCF7C4FE62B616F0FF0F3FF4DEAEF0B225
:10495000BDE8F88F94340020C4340020D800002033
:10496000D4000020D00000200A4910B508700A4881
:10497000002141618161C16101624162122218F02E
:104980007CF80648012100F10C021170011D416004
:10499000016010BD94040020B0340020C434002015
:1049A00038B5037A8DF800309DF8003023B140F21D
:1049B000BF211020FCF78AFEF0B1416000F1080130
:1049C0000A70EFF3108372B6DFF844C0C0F800C07D
:1049D000ACF104014A6852B1127A8DF80020009AB5
:1049E00000929DF80040012C08BFC1F800C00A6881
:1049F0001060086033B904E040F272211020FCF727
:104A000065FE62B603480078BDE8384011F070BF1B
:104A1000C834002094040020094810B500214161E9
:104A20008161C16101624162122218F026F80548D5
:104A3000012200F10C010A70011D4160016010BDEE
:104A4000B0340020C4340020024901480860704797
:104A5000CD4A0000D000002038B5037A8DF8003030
:104A60009DF80030002B1CBF027238BDF0B14160D0
:104A700000F108010A70EFF3108372B6DFF844C04A
:104A8000C0F800C0ACF104014A6852B1127A8DF846
:104A90000020009A00929DF80040012C08BFC1F848
:104AA00000C00A681060086033B904E040F2722167
:104AB0001020FCF70BFE62B603480078BDE83840D2
:104AC00011F016BFC83400209404002038B50C0043
:104AD00016D0A08000216172FDF7B0FD054612F0EE
:104AE000EAFC010011D06A46284612F004FDE0807D
:104AF00080B1FB2813D94FF490711020FCF7E6FD2C
:104B00004FF488711020FCF7E1FD40F219111020DC
:104B1000FCF7DCFD4FF48F711020FCF7D7FD0098F7
:104B200013F00DFE012818BF022805D04FF498712C
:104B30004FF01000FCF7CAFD20722068B0B1009958
:104B4000E288C91C17F01FFF284612F07BFC90B1C9
:104B50000021284612F07EFD90B10C48C17D00294D
:104B600008BF38BD018B491E018338BD40F23711A3
:104B70001020FCF7ABFD4FF49E711020FCF7A6FD52
:104B800040F241111020FCF7A1FD000094340020F8
:104B900030B4A2F80900B1F808C0A2F80BC08B89A4
:104BA000A2F80D304889A2F80F00CC89A2F8114074
:104BB000CD8DA54204BF4C8D844206D10C8E9C4203
:104BC00002BF8B8D6345002301D04FF00103D374E6
:104BD0004885B2F81100C885B2F80B008885B2F894
:104BE0000D00088630BC0249104613F047BE000095
:104BF000914C000030B490F86E508C88B1F808C029
:104C000015F00C0F1BD000BFB4F5296F98BF4FF4FF
:104C1000296490F86F5015F00C0F17D0BCF5296F70
:104C200098BF4FF4296C4A88C988A0F84C20A0F896
:104C30005010A0F84E40A0F852C030BC7047002B76
:104C40001CBF157815F00C0FDED1E2E7002B1CBF5E
:104C5000527812F00C0FE1D1E5E70000014800782E
:104C60007047000095040020A2F80900888AA2F885
:104C70000B00C88AA2F80D00088BA2F80F00488B21
:104C8000A2F811000149104613F0F5BDDD4C0000FB
:104C900038B5A0F11605C07C0C4600F00100FFF706
:104CA00077FC0021002818BF009112D11420207039
:104CB000D5F81F00C4F80200D5F82300C4F8060098
:104CC000B5F82700608195F82900207302484068F4
:104CD0000090BDF8000038BD844E000070B586B06D
:104CE0000E460446FFF760FC002570B3A4F5F17092
:104CF0002572048803A9204616F0FBF818B1FC21A0
:104D00002C20FCF7E3FCADF80040BDF81200ADF834
:104D10000200BDF81400ADF80400BDF80E00ADF8B7
:104D20000600BDF81000ADF80800684616F028F936
:104D3000002808BF009504D040F205112C20FCF794
:104D4000C5FCBDF8000006B070BDFFE72F20307035
:104D5000D4F80900C6F80300D4F80D00C6F807001F
:104D6000B4F81100A6F80B00014800680090E8E7CD
:104D7000844E000070B5B0F838C012F00C0F0CF182
:104D8000040C1FFA8CFC4FF434751CBF05EB8C1C13
:104D90001FFA8CFC0FD1012A04BF4FEACC0C0CF196
:104DA000500C06D0022A04BF4FEA8C0C0CF12C0CDC
:104DB00060D11FFA8CFC12F00C0F18BF4FF429645D
:104DC00006D1B0F84E60B0F84A40A64238BF34462B
:104DD000644538BFA446B0F84040241DA4B213F087
:104DE0000C0F1CBF05EB8414A4B20AD1012B04BF25
:104DF000E400503404D0022B04BFA4002C3439D179
:104E0000A4B213F00C0F14BF4FF42960B0F84200A5
:104E1000A04238BF04461A48007898B113F00C0F2E
:104E200018BF4FF4696012D0844228BF2046044660
:104E300012F00C0F18BF4FF4696012D0844528BFE0
:104E4000604684460CEB04000844801D70BD012BB5
:104E500008BF4FF4E470E7D0022B08BFE820E3D08E
:104E600008E0012A08BF4FF4E470E7D0022A08BF27
:104E7000E820E3D04FF4F1710620FCF727FC000096
:104E800095040020040000000400000070B51A4DD5
:104E9000A5F1080408211848FCF7CEFC2868002872
:104EA00004BF68680028F5D0D5E90001134A81EAFB
:104EB000000100FB02F281EAB01080EA41204FEAD3
:104EC000F1430E494FEAF26200FB01F183EA00036D
:104ED00012EB820283EAB01080EA4320226028604D
:104EE0004FEAF1614FEAF34001EB810168606160D4
:104EF00008BF0029D8D070BDE4000020BB79379EE0
:104F0000094A0A48D2E9001348434B4083EAB111E9
:104F100081EA432111604FEAF0604FEAF34100EB70
:104F20008000516070470000DC000020BB79379E94
:104F3000094A0A48D2E9001348434B4083EAB111B9
:104F400081EA432111604FEAF0604FEAF34100EB40
:104F50008000516070470000E4000020BB79379E5C
:104F600070B5A0F1340530F8DC6C1B480C460168C4
:104F700000291CBF284688471848016800291CBF23
:104F8000304688470A2020700020A070A4F80360F3
:104F900095F83D0060713046FDF750FB12F0C2F904
:104FA000A8B13046FDF7CEFD00213046FDF78CF963
:104FB00001213046FDF788F9002818BF70BD084868
:104FC0000068002808BF70BDBDE87040004772212E
:104FD0006320FCF77BFB0000EC000020F4000020C5
:104FE000F000002070B5044640680D46012390F89B
:104FF000C6200021A83012F029FF002804BF01209C
:1050000070BD284613F03BFB02466068A0F8BC2345
:105010006068B0F8BC10511A09B247F6FE728A42B5
:10502000A8BF002909DD00F2BE31284613F022FB9B
:1050300061680B2081F8C60008E0282180F8E5109F
:10504000606802220249DC30FFF7AAFC002070BD34
:10505000614F000070B5044640680D46012390F88A
:10506000C6200021A83012F0F1FE002804BF012064
:1050700070BD606890F87310284613F003FB002899
:1050800038D06068B5F80D10A0F8BC136068B0F8AF
:10509000BC20891A09B247F6FE728A42A8BF0029CD
:1050A0002EDD284613F01BFB12F0B3FE06466068A7
:1050B0003146C0F8C463287912F0DDFF6168A1F8B9
:1050C000BE03B5F80500314612F0CCFF6168C1F8A7
:1050D000C003284613F006FB6168A1F8C803284600
:1050E00013F003FB6168A1F8CA0361680E2081F820
:1050F000C6000EE029462046BDE8704013F0DABC39
:10510000282180F8E510606802220349DC30FFF7AF
:1051100047FC002070BD0000614F000070B50446E0
:1051200040680D46012390F8C6200021A83012F0F7
:105130008DFE70B9606890F8C620142A09D001234A
:105140000521A83012F082FE00280CBF01200820A3
:1051500070BD03216068D0F858215AB10C22204656
:1051600013F0C3FC6168302081F8C600204613F0BC
:1051700088FC2DE090F80601002804BF204613F0BB
:1051800080FC606800F53E71284613F0C7FA60683D
:1051900000F5A071284613F0B8FA60680188A0F8FD
:1051A000D513606800F2D731284613F0B2FA606870
:1051B00000F2DF31284613F0A5FA606802220549A3
:1051C00000F57370FFF7ECFB6168162081F8C600EC
:1051D000002070BDED8C010070B50278002A0CBF74
:1051E0000125002540680E1D00F1A8043DB10023F3
:1051F000A27F1946204612F029FE20B105E0207B4F
:1052000010F0010F01D0012070BD3168124B7068A1
:10521000194041F60702C4F86E101040C4F872003D
:1052200094F87120012142F0080284F871200020D6
:10523000A4F85A0025B184F85C100420A07708E097
:1052400094F85C00401C84F85C00E06840F00100C9
:10525000E060002070BD00002F4904F710B5041D68
:105260000BF05EF9044A41F60703024001EA03002D
:105270002260606010BD00002F4904F72DE9F8435B
:1052800003780746002B0CBF4FF001084FF00008D1
:105290007E6801F1040906F1A80406F5DC7596F8AC
:1052A000C5200721204612F0D1FD002804BF0120AF
:1052B000BDE8F883D9F80400D9F80010194B41F67D
:1052C000070219401040C4F86E10C4F8720094F838
:1052D0007110002041F0080184F8711084F8580022
:1052E0006077B8F1000F1CBF796881F8730195F8F9
:1052F00060108DF800109DF8001081B93188A5F874
:10530000621085F86100D9F800006866D9F80400D9
:10531000A8660222044905F15800FFF741FB00206E
:10532000BDE8F8832F4904F74B8E010070B5406843
:105330000D1D00F1A8040BF0F3F841F60702054B30
:10534000114094F86E201840024062F30700286074
:10535000696070BD2F4904F7416882B001F5DC70C7
:1053600091F818228DF800209DF80020002A1CBF1B
:1053700002B070470988A0F862101A2180F8611005
:1053800002220249583002B0FFF70ABB4B8E0100DF
:105390002DE9F04103780E46002B0CBF01270027B2
:1053A0004068082100F1A80490F8C520204612F0BA
:1053B0004DFD78B93FB10023A27F1946204612F077
:1053C00045FD20B106E0207B10F0020F02D0012045
:1053D000BDE8F08194F85F004FF0000510F0020F77
:1053E0001BD1304613F035FA84F86900B6F8050091
:1053F000A4F86A00B6F80700A4F86C0094F85F00FF
:1054000040F0020084F85F0010F0010F0AD0022281
:105410001B4904F16000FFF71FFB94F85F0010F0D8
:10542000010F24D18FB10023A27F1946204612F02C
:105430000DFD30B10120A07784F85C00A4F85A502B
:1054400015E049214020FCF741F9E06810F0020F17
:1054500003D050214020FCF739F940F00200E06011
:1054600094F85C00401C84F85C00A4F85A50607FFB
:10547000012804BF657784F858500020BDE8F0810A
:105480003D8F01002DE9F84F4768064607F1A8094E
:10549000FEF704FF054670687F2D00F1A80480F830
:1054A000C15008BFBDE8F88F94F83300D6F80480E7
:1054B000A0764648A1688268C2F580536B43514389
:1054C00003EB2131A160417900293DD0716890F949
:1054D000002001F1A80AD1F8B01001F5006109130C
:1054E00049B2914207DA90F90200494249B20844B0
:1054F00000F307000AE090F901208A4224DA90F9CB
:105500000300494249B2084400F30700E0B1DAE978
:1055100000016FF00042514071EA000014D017F012
:10552000F2F8DAE90023801A71EB03000CD3D6F805
:1055300004A00AF5DC7B0BF0FDFF8AF86F0024491C
:105540000BF1A00013F09DF994F91B000021281A1B
:1055500048BF404298F82D20824210DCFF2A0ED02E
:10556000207F401CC0B2207798F82E20904202D8AD
:10557000E07E7F2803D10020E5762077012197F88F
:105580002C00012818BFBDE8F88F002908BFBDE82E
:10559000F88F706890F8C0118DF800109DF8001019
:1055A00000F5DC70002918BFBDE8F88F3988A0F835
:1055B000091099F81910C17299F81A100173BDE811
:1055C000F84F02220349FFF7EBB90000F800002072
:1055D000D9550000F18F01002DE9F041A0F51675B5
:1055E000A0F5D87482B095F86F0014F0D1FE804613
:1055F000A0682E4E00F50060001396F9001040B22E
:10560000884207DA96F90210404240B2084400F39B
:1056100007070DE096F901108142A4BF02B0BDE872
:10562000F08196F90310404240B2084400F30707A6
:10563000002F04BF02B0BDE8F0816FF00042D4E952
:105640000001514071EA000004BF02B0BDE8F081E2
:1056500017F059F8D4E90023801A71EB03003CBF1E
:1056600002B0BDE8F0812888694612F0BAFB18B193
:1056700085217A20FCF72AF808F10100C1B2022343
:105680003A46684614F0C5FE00281CBF02B0BDE8CB
:10569000F08130790649A0FB015617F034F8401923
:1056A0007141C4E9000102B0BDE8F081F8000020BA
:1056B00040420F002DE9F84391F801C00A788C7838
:1056C0004FEA1C6342EA0C2242EA044243EA1443D2
:1056D000CC784FEA142C42EA04640A7943EA0C03BA
:1056E0001A434979012842EA012108BF41F4803177
:1056F0000D466A46204600F095F800281CBF0120A0
:10570000BDE8F883DFF8608098F8000098F8011091
:10571000884204BF0020BDE8F8839DF8009048450A
:1057200015D9D8F80410A0EB090C01EBC003002236
:105730000CF0FF0C861A01EBC606521C56E90276E5
:1057400063E80276ACF1010C1CF0FF0CF2D1D8F842
:105750000410401C01EBC901C1E9004588F80000B4
:105760000120BDE8F88300000401002010B510F00E
:10577000070F03D063214820FBF7A8FF20B1034A9D
:105780005170506000201070C80010BD040100204E
:1057900038B54B780A784FEA136C8C7842EA0323C9
:1057A000CA7843EA04434CEA144C43EA02634CEAE5
:1057B000122291F804C0497942EA0C0242EA01211E
:1057C000012808BF41F4803118466A4600F02AF8E3
:1057D000002808BF38BD0C480178491EC9B20170C5
:1057E0009DF800208A420DD24068891A00EBC20061
:1057F000C9B20830491E70E8022311F0FF01E0E849
:105800000423F7D1012038BD040100200149002004
:10581000087070470401002001484078704700007C
:10582000040100202DE9F001294E00231370337884
:10583000002B44D05B1EDBB24FF0000C012BC8BF25
:10584000756810DD0CEB0304640805EBC407D7E9A9
:105850000087B8EB00088F4134BFA4462346A3EB72
:105860000C04012CEEDC766806EBCC05D5E900458E
:1058700080EA040781EA050857EA080708BF82F8AA
:1058800000C020D0041B71EB05043FBF82F800C0AC
:105890000020BDE8F001704706EBC30CDCE9004CCA
:1058A00080EA040581EA0C06354308BF13700AD06C
:1058B000001B71EB0C0032BF1370581C10700020DD
:1058C000BDE8F0017047BDE8F0010120704700001D
:1058D000040100202DE9F0410446807C022816BF17
:1058E000032801260026002816BF022800270127CA
:1058F0004FF0080536B194F8670004F16801FEF72F
:1059000039FA0546A078C0F34010A0B9082D03D09D
:105910002846FEF763F970B17FB367B1607E002857
:1059200008BFBDE8F081D4F81300C4F86100B4F8F2
:105930001700A4F86500A67684F86070E576FEF797
:1059400049FA2A49A0FB015616F0DDFE40197141C3
:10595000C4E91601002084F86E000646E07EFEF7DA
:1059600055F90546A07E0127002818BF002D1BD041
:10597000E07EFEF733F950B116E0FFE704F1610174
:105980000020FDF77FF90028D5D1BDE8F08184F82B
:105990006070324604F16101284612F091F9E17E0F
:1059A00004F16100FEF73EF9A07810F0040F1AD060
:1059B000E07EFEF771F9050015D0E07EFEF71AF9DA
:1059C00088B984F86E70324604F16F01284612F0EF
:1059D00077F904F16F01064CA06812F01AFE01215C
:1059E000A06812F01DFE0120BDE8F08140420F00CA
:1059F0000C010020F8B504460D46283013F0EAFCEF
:105A0000B4F802C0CCF3001129B1BDE8F840282257
:105A1000614602F079BCCCF34001002914BFB4F810
:105A20005460B4F84C6021791D4A4FF47A73082908
:105A300032F8112002F2E732B2FBF3F708BF40233D
:105A40000AD0042908BF102306D0022907BF042367
:105A500012220823192200E0142213FB02F2082963
:105A600008BF402319D0042908BF2E2315D00023D6
:105A700002290CBF182128211944114411FB00717F
:105A80006FF07F0202EBC0100144CDF800C06279D4
:105A90002B46304601F080FFF8BD4FF4A871EBE7CC
:105AA000A68200002DE9F04F80468DB00C46C269F9
:105AB000D8E90501D8E90076D8E903A90392CDE930
:105AC0000101D8E90801CDE9040106A813F02BFD76
:105AD000A07A60F31749207860F30707B4F8010053
